:020000040800F2
:10000000C0040120E90200089B460008633F000885
:100010009946000899070008ED500008000000000C
:10002000000000000000000000000000290200089D
:10003000B90800080000000085020008E746000833
:100040000303000803030008030300080303000878
:100050000303000803030008030300080303000868
:100060000303000803030008C30800089D070008F5
:1000700003030008A9070008B5070008C107000826
:10008000CD070008D9070008030300080303000890
:10009000030300080303000803030008C90800085D
:1000A0000303000803030008030300080303000818
:1000B0000303000803030008030300080303000808
:1000C00003030008030300080303000803030008F8
:1000D00003030008030300080303000803030008E8
:1000E000BB0800080303000803030008030300081B
:1000F000030300080303000803030008E5070008E2
:1001000003030008030300080303000803030008B7
:10011000654C000803030008AD470008030300080E
:10012000F10700080303000803030008FD070008A7
:1001300003030008000000000000000003030008A3
:100140000303000803030008030300080303000877
:10015000090800080303000803030008030300085C
:100160000303000803030008030300080303000857
:100170000303000803030008000000000000000063
:10018000030300080303000800F002F800F03CF845
:100190000AA090E8000C82448344AAF10107DA45E2
:1001A00001D100F031F8AFF2090EBAE80F0013F0F8
:1001B000010F18BFFB1A43F001031847E86C000059
:1001C000286D0000103A24BF78C878C1FAD85207C9
:1001D00024BF30C830C144BF04680C6070470000C1
:1001E0000023002400250026103A28BF78C1FBD840
:1001F000520728BF30C148BF0B6070471FB506F0DB
:10020000D7FC1FBD10B510BD00F0D4F91146FFF7A3
:10021000F5FF04F07DFF00F0F2F903B4FFF7F2FF01
:1002200003BC00F0F5F900002C4B19680868B0E831
:10023000F04F80F30988BFF36F8F4FF0000080F319
:10024000118870470000000008480068006880F3CB
:1002500008884FF0000080F3148862B661B6BFF3DF
:100260004F8FBFF36F8F00DF00BF00BF08ED00E0CE
:10027000DFF80C00016841F470010160704700BFB5
:1002800088ED00E0EFF30980BFF36F8F134B1A681E
:100290001EF0100F08BF20ED108A20E9F04F10600B
:1002A00009B44FF0500080F31188BFF34F8FBFF3B4
:1002B0006F8F05F0C5FE4FF0000080F3118809BC78
:1002C00019680868B0E8F04F1EF0100F08BFB0ECD6
:1002D000108A80F30988BFF36F8F704728000010E1
:1002E000EFF3058070470000094880470948004740
:1002F000FEE7FEE7FEE7FEE7FEE7FEE7FEE7FEE7D6
:10030000FEE7FEE704480549054A064B7047000032
:100310009D47000889010008C0D40020C0040120C6
:10032000C0E40020C0E4002053EA020C00F0698021
:100330002DE9F04B4FF00006002B1FBFB3FA83F5F9
:1003400003FA05F424FA05F65E4012BF1643B2FA2A
:1003500082F502FA05F4C5F120051EBF22FA05FC5C
:1003600044EA0C04203556EA044C4FEA144418BF02
:10037000641C4FF000084FF00009904271EB030C31
:1003800039D3002919BFB1FA81F701FA07F6B0FA9B
:1003900080F700FA07F6C7F120071EBF20FA07FC16
:1003A00046EA0C062037B6FBF4FCA7EB0507103F26
:1003B00007F01F0BCBF120060CFA0BFB2CFA06F60C
:1003C00044BFB3460026202FA4BF5E464FF0000B6B
:1003D0005BEA060C08BF4FF0010B19EB0B09ABFBF6
:1003E000027C48EB0608C01B06FB02CC0BFB03CCCF
:1003F00071EB0C01C1E70B46024641464846BDE899
:10040000F08B13B54FF000004FF00001AFF3008008
:10041000BDE81C407047032A40F2308010F0030C06
:1004200000F0158011F8013BBCF1020F624498BF47
:1004300011F801CB00F8013B38BF11F8013BA2F1E4
:10044000040298BF00F801CB38BF00F8013B11F05F
:10045000030300F02580083AC0F0088051F8043BFF
:10046000083A51F804CBA0E80810F5E7121D5CBF6C
:1004700051F8043B40F8043BAFF30080D20724BF9F
:1004800011F8013B11F801CB48BF11F8012B24BF33
:1004900000F8013B00F801CB48BF00F8012B704782
:1004A00010B5203AC0F00B80B1E81850203AA0E80F
:1004B0001850B1E81850A0E81850BFF4F5AF5FEA43
:1004C000027C24BFB1E81850A0E8185044BF18C9F6
:1004D00018C0BDE810405FEA827C24BF51F8043B9D
:1004E00040F8043B08BF7047D20728BF31F8023BF1
:1004F00048BF11F8012B28BF20F8023B48BF00F885
:10050000012B704702F0FF0343EA032242EA024252
:1005100000F02CB84FF0000200B513469446964602
:10052000203922BFA0E80C50A0E80C50B1F1200106
:10053000BFF4F7AF090728BFA0E80C5048BF0CC0B4
:100540005DF804EB890028BF40F8042B08BF704712
:1005500048BF20F8022B11F0804F18BF00F8012B84
:1005600070477047704770474FF000020429C0F091
:10057000128010F0030C3FF4CFAFCCF1040CBCF1AF
:10058000020F18BF00F8012BA8BF20F8022BA1EB27
:100590000C01FFF7C1BF5FEAC17C24BF00F8012B4B
:1005A00000F8012B48BF00F8012B70470048704746
:1005B000640400107546FFF7F9FFAE460500694672
:1005C000534620F00700854618B020B5FFF79AFE85
:1005D000BDE820404FF000064FF000074FF0000844
:1005E0004FF0000B21F00701AC46ACE8C009ACE8C5
:1005F000C009ACE8C009ACE8C0098D46704710B529
:100600000446AFF300802046BDE81040FFF705BE6A
:1006100001491820ABBEFEE726000200704700002B
:1006200010B504464B48416821F4403141604168AF
:100630006268114341602068416821F48071416023
:1006400020684168226941EA0221416020684168CE
:1006500021F04071416020684168A2681143416007
:100660002068816821F40061816020688168E26807
:1006700011438160A06A6FF07061C8422068816890
:1006800021F070618160206881680CD0A26A1143FA
:1006900081602068816821F0405181602068816814
:1006A000E26A114301E021F04051816020688168D5
:1006B00021F00201816020688168227E41EA4201C6
:1006C000816094F8200000283FD0606A401E07280F
:1006D00004D940F2A67120A004F019FD20684168F9
:1006E00041F4006141602068416821F4604141604B
:1006F00020684168264B626A03EB42321143416035
:100700002068C16A21F47001C1622068C16AA28BAD
:10071000204B03EB02521143C1622068816821F42F
:10072000007181602068816894F8302041EA42219C
:1007300081602068816821F480618160206881681F
:10074000626941EA8221816010BD2068416821F41C
:100750000061D4E7002301402E2E2F447269766594
:1007600072732F53544D3332463478785F48414C7E
:100770005F4472697665722F5372632F73746D33A1
:1007800032663478785F68616C5F6164632E630001
:1007900000E0FFFF0000F0FFFEE70000014800F06E
:1007A00041BB00004C070020014800F03BBB0000AB
:1007B000E0010010014800F035BB00008C0600206D
:1007C000014800F02FBB0000EC060020014800F0BB
:1007D00029BB000040020010014800F023BB0000CC
:1007E000A0020010014800F01DBB0000AC07002073
:1007F000014800F017BB0000CC050020014800F0C4
:1008000011BB00002C060020014800F00BBB0000CB
:100810009C08002001681823CAB2103AB2FBF3F218
:10082000054B6FF30901032A9B5CC36500D9091DC1
:100830008165084670470000806D000810B50146CC
:1008400000208B698A6A4FF0C07453B1B3F5005F22
:1008500015D072B1012A0CD0022A0AD0032A09D17C
:1008600004E01AB1012A06D0022A03D1C96AC901DB
:1008700000D5012010BDC96AA142FAD010BD002ADE
:10088000F7D0012AF2D0022AF3D0032AF3D010BD08
:1008900030B50468256825F4802525600468636008
:1008A0008368402B036803D099600068C26030BD44
:1008B0009A600068C16030BD70474FF4004000F09E
:1008C00057BD102000F054BD202000F051BD72B67D
:1008D000FEE70022AFF3008030B50E4B0546012045
:1008E0005C7A002C14D1587A1C54587A03EB80009F
:1008F00045605D7A03F108002A54587A421C5A7206
:10090000303008703A2048702F208870CC7000205A
:1009100030BD000000030010F8B500260546009623
:1009200008680C46122804D940F289615DA004F0E1
:10093000EEFB6068401E0F2804D940F28A6159A07E
:1009400004F0E5FBA06890B1012810D002280ED079
:1009500003280CD004280AD0052808D0062806D081
:10096000072804D040F28B614EA004F0D0FB95F82C
:100970003C00012819D0012085F83C00206807219F
:100980002A68092813D9D3680A3800EB400081404F
:100990008B43D3602178A0680A3901EB410188407C
:1009A0002968CA681043C86010E00220F8BD1369C6
:1009B00000EB400081408B4313612178A06801EB7C
:1009C0004101884029680A691043086160681F2155
:1009D000072813D22A68536B401E00EB8000814029
:1009E0008B43536321792088491E80B201EB81013A
:1009F000884029684A6B1043486327E02A680D281D
:100A000012D2136BC01F00EB800081408B43136335
:100A100021792088C91F80B201EB810188402968B3
:100A20000A6B1043086311E0D36A0D3800EB8000B5
:100A300081408B43D362217920880D3980B201EB4C
:100A4000810188402968CA6A1043C86224492A681B
:100A500022488A4206D12268122A03D1426842F40F
:100A6000800242602A688A4218D12168102901D088
:100A7000112913D1416841F4000141602068102818
:100A80000CD1184818490068B0FBF1F000EB800069
:100A9000400000E0401E00900028FBD185F83C603B
:100AA0000020F8BD2E2E2F447269766572732F5385
:100AB000544D3332463478785F48414C5F44726914
:100AC0007665722F5372632F73746D333266347888
:100AD000785F68616C5F6164632E6300002301408E
:100AE000002001402400001040420F002DE9F04793
:100AF00004004FF000057DD07249206888420AD07A
:100B00007149884207D07149884204D040F24311AC
:100B10006FA004F0FCFA606868B1B0F5803F0AD0BD
:100B2000B0F5003F07D0B0F5403F04D04FF4A271BC
:100B300067A004F0ECFAA0684FF080774FF00078DF
:100B40004FF0407950B1B84208D0404506D04845F2
:100B500004D040F245115EA004F0D9FA206930B10A
:100B6000012804D04FF4A37159A004F0D0FA207EDC
:100B700030B1012804D040F2471155A004F0C7FA63
:100B8000614EA06A80B3B8422ED040452CD0484573
:100B90002AD0B0F1806F27D0B0F1A06F24D0B0F18F
:100BA000C06F21D0B0F1E06F1ED0B0F1006F1BD04C
:100BB000B0F1106F18D0B0F1206F15D0B0F1306FD8
:100BC00012D0B0F1406F0FD0B0F1506F0CD0B0F137
:100BD000606F09D0B0F1706F06D0B04204D04FF40E
:100BE000A4713BA004F093FAE06848B1B0F5006F3F
:100BF00006D000E043E040F2491135A004F087FA46
:100C0000E069401E0F2804D94FF4A57130A004F00C
:100C10007EFA94F8300030B1012804D040F24B1134
:100C20002BA004F074FA6069012807D030B10228C3
:100C300004D04FF4A67126A004F069FA94F82000BD
:100C400030B1012804D040F24D1121A004F05FFA28
:100C5000A06AB0420FD0E06A68B1B0F1805F0AD0FC
:100C6000B0F1005F07D0B0F1405F04D040F2511105
:100C700017A004F04CFA206C002618B108E00120FF
:100C8000BDE8F087204600F041F8666484F83C60D7
:100C9000206CC00610D4206C20F4885040F0020074
:100CA00020642046FFF7BCFC6664206C20F0020044
:100CB00040F00100206400E0012584F83C602846F3
:100CC000DEE7000000200140002101400022014039
:100CD0002E2E2F447269766572732F53544D333222
:100CE000463478785F48414C5F4472697665722F6C
:100CF0005372632F73746D3332663478785F686132
:100D00006C5F6164632E63000100000F10B586B054
:100D1000044614216846FFF7FDFB1149206888420C
:100D20001BD110480021026842F480720260006802
:100D300000F4807005900B481438026842F00402F9
:100D40000260006800F00400059003200090CDE9E7
:100D500001016946044800F017FB06B010BD000011
:100D60000020014044380240000802402DE9F041D3
:100D70000446876D00F0B8FC064694F8350000255F
:100D8000022806D08020606584F834500120BDE838
:100D9000F0812068016821F0160101602068416936
:100DA00021F080014161206C08B9A06C20B120685D
:100DB000016821F0080101602068016821F001014B
:100DC00001600CE000F090FC801B052807D9202072
:100DD0006065032084F8350084F83450D7E7206834
:100DE0000068C007EED194F85C103F208840B860DE
:100DF000012084F8350084F834500020C7E790F8CB
:100E00003510022903D0802141650120704705215A
:100E100080F835100068016821F0010101600020B0
:100E2000704700002DE9F84304464FF00009CDF863
:100E3000009063484FF41651A56D0068B0FBF1F7C0
:100E40002E6894F85C10082000FA01F131420FD0AE
:100E500021680A6852070BD50A6822F004020A606A
:100E600094F85C108840A860606D40F001006065F7
:100E700094F85C104FF0010808FA01F0304208D0F5
:100E800021684969090604D5A860606D40F0020038
:100E9000606594F85C1004208840304208D02168D6
:100EA0000968890704D5A860606D40F0040060659A
:100EB00094F85C1010208840304218D021680968EE
:100EC000090714D5A86020680168490304D50068A3
:100ED000000308D5A16C07E00168C90503D40168C7
:100EE00021F008010160216C09B12046884794F87F
:100EF0005C1020208840304231D021680968C90642
:100F00002DD5A86094F8350005282068016806D022
:100F1000490347D5006800031DD4616C1CE021F033
:100F2000160101602068416921F080014161206C57
:100F300008B9A06C20B12068016821F008010160A7
:100F400094F85C103F208840A86084F8358084F8CD
:100F50003490216D1FE0E16B09B120468847606D38
:100F600000282BD0606DC00714D0052084F8350010
:100F70002068016821F0010101600098401C009088
:100F8000B84203D820680068C007F6D184F83580DD
:100F900084F83490E16C002910D001B02046BDE8FF
:100FA000F04308470168C905D5D4016821F0100154
:100FB000016084F8358084F83490CCE7BDE8F8838C
:100FC000240000102DE9F041044600F08DFB054699
:100FD000002C7CD0A249206888423ED0A04918311C
:100FE00088423AD09E493031884236D09C494831B7
:100FF000884232D09A49603188422ED0984978315F
:1010000088422AD096499031884226D09449A83106
:10101000884222D0934988421FD092491831884291
:101020001BD090493031884217D08E4948318842D0
:1010300013D08C49603188420FD08A497831884278
:101040000BD088499031884207D08649A831884220
:1010500003D0B82184A004F05AF86068C0B1B0F1A0
:10106000007F15D0B0F1806F12D0B0F1C06F0FD0FB
:10107000B0F1006F0CD0B0F1206F09D0B0F1406F2B
:1010800006D0B0F1606F03D0B92177A004F03FF82B
:10109000A06838B1402805D0802803D0BA2172A0BA
:1010A00004F035F8E068B0F5007F04D018B1BB213A
:1010B0006DA004F02CF82069B0F5806F04D018B151
:1010C000BC2169A004F023F8606958B100E071E028
:1010D000B0F5006F06D0B0F5805F03D0BD2162A0EF
:1010E00004F015F8A06948B1B0F5005F06D0B0F57E
:1010F000804F03D0BE215CA004F009F8E06940B144
:10110000B0F5807F05D0202803D0BF2156A003F082
:10111000FEFF206A60B1B0F5803F09D0B0F5003F16
:1011200006D0B0F5403F03D0C0214FA003F0EFFF41
:10113000606A002832D0042806D0C1214AA003F0FA
:10114000E6FF606A002829D0A06A48B1012807D0CC
:10115000022805D0032803D0C62143A003F0D7FFFF
:10116000E06A60B1B0F5000F09D0B0F1807F06D021
:10117000B0F1C07F03D0C7213BA003F0C8FF206BB4
:1011800060B1B0F5001F09D0B0F5800F06D0B0F502
:10119000C00F03D0C82134A003F0B9FF022084F8A7
:1011A0003500002684F834602068016821F00101D0
:1011B00001600EE00120BDE8F08100BF00F094FA6C
:1011C000401B052805D920206065032084F83500E0
:1011D000F1E720680068C007F0D122681168304844
:1011E0000140D4E901031843D4E903352B431843E4
:1011F00063691843A3691843E3691843236A1843D2
:101200000843616A042903D1D4E90B131943084345
:10121000106020684069656A20F007002946054390
:10122000012704290CD1A06A0543E06A40B1204699
:10123000FFF704FB20B14020606584F83570B9E702
:10124000206845612046FFF7E5FA94F85C203F21CD
:1012500091408160666584F835700020ABE700003E
:1012600010600240106402402E2E2F447269766591
:1012700072732F53544D3332463478785F48414C63
:101280005F4472697665722F5372632F73746D3386
:1012900032663478785F68616C5F646D612E6300DC
:1012A0003F8010F02DE9F04789460446876D002500
:1012B000581E4FF6FF711E469046884204D34FF4E5
:1012C000E6711CA003F023FF94F8340001280DD030
:1012D000012084F8340094F835100020012907D04B
:1012E00084F8340002252846BDE8F0870220FBE799
:1012F000022184F83510606533464246494620464F
:10130000FFF7C6FA94F85C103F208840B860206868
:10131000016841F016010160206C20B1206801686D
:1013200041F0080101602068016841F0010101609D
:10133000D9E700002E2E2F447269766572732F5301
:10134000544D3332463478785F48414C5F4472697B
:101350007665722F5372632F73746D3332663478EF
:10136000785F68616C5F646D612E63007047000098
:10137000044910B50A68024202D00860FFF7F6FF80
:1013800010BD0000143C01402DE9F84FDFF880B299
:101390000D46044658451BD09E48844218D09E48AE
:1013A000844215D09D48844212D09D4884420FD07B
:1013B0009C4884420CD09C48844209D09B4884427B
:1013C00006D09B48844203D0AC219AA003F09FFE34
:1013D00028680104090C01D0000C03D0AD2195A0B0
:1013E00003F095FE6868F8B101281DD011281BD0C4
:1013F000022819D0122817D0B0F5881F14D0B0F5E4
:10140000041F11D0B0F5441F0ED0B0F5901F0BD0C3
:10141000B0F5081F08D0B0F5481F05D0032803D049
:10142000AE2184A003F073FE00264FF0010A4FF0B6
:10143000030900BF0AFA06F02F68804607404745B7
:101440007DD1287900F00300012801D002281DD1A8
:10145000E86848B1012807D0022805D0032803D046
:10146000C02174A003F053FEA068720009FA02F1D3
:101470008843E96891400143A1606068297920EAC6
:101480000800C1F30011B140014361602879C043F5
:10149000800712D0A86838B1012805D0022803D0EF
:1014A000D12164A003F033FEE068720009FA02F172
:1014B0008843A96891400143E160287900F0030066
:1014C00002282AD12869D8B1092819D0012817D0B3
:1014D000022815D0032813D0042811D005280FD0D6
:1014E00006280DD007280BD0082809D00A2807D0D5
:1014F0000C2805D00F2803D0DE214EA003F007FEF4
:10150000F00804EB8002106A7107CB0E0F2199409E
:10151000884329699940014311622068720009FAE1
:1015200002F18843297901F00301914001432160D0
:10153000686810F4403F64D04D48016800E060E006
:1015400041F480410160006826F0030100F480400E
:10155000009048480A18D2F80808B1070B0F0F216D
:10156000994088435C4501D1002123E029498C4200
:1015700001D101211EE028498C4201D1022119E04C
:1015800026498C4201D1032114E025498C4201D126
:1015900004210FE023498C4201D105210AE02249B0
:1015A0008C4201D1062105E020498C4201D107215E
:1015B00000E0082199400143C2F808182E49086844
:1015C0006A68B843D20300D5384308602A49091D28
:1015D00008686A68B843920300D538430860264912
:1015E000083108686A68B843D20200D538430860F9
:1015F00021490C3108686A68B843920200D5384323
:101600000860761C102EFFF415AFBDE8F88F0000BF
:10161000000002400004024000080240000C0240AA
:10162000001002400014024000180240001C02405A
:10163000002002402E2E2F447269766572732F535C
:10164000544D3332463478785F48414C5F44726978
:101650007665722F5372632F73746D3332663478EC
:10166000785F68616C5F6770696F2E6300000000CF
:101670004438024000300140003C014070B515463E
:101680000C00064604D140F29D1108A003F03FFD76
:1016900045B1012D04D04FF4CF7104A003F037FD04
:1016A000B46170BD2004B06170BD00002E2E2F44C7
:1016B0007269766572732F53544D3332463478789D
:1016C0005F48414C5F4472697665722F5372632F95
:1016D00073746D3332663478785F68616C5F6770FD
:1016E000696F2E63000000000148806870470000A9
:1016F0003C00002070B504007DD08A4920688842F3
:101700000AD08949884207D08849884204D040F2EB
:10171000BF1187A003F0FBFC60689349401E88421C
:1017200004D94FF4E07182A003F0F1FCA0684FF4FB
:10173000804530B1A84204D040F2C1117CA003F032
:10174000E6FCE068800A04D04FF4E17178A003F071
:10175000DEFC2069A84207D0B0F5404F04D040F22B
:10176000C31173A003F0D3FC606930B1012804D029
:101770004FF4E2716EA003F0CAFCA06930F0FE00E5
:1017800004D040F2C5116AA003F0C1FCE06930B199
:10179000402804D04FF4E37165A003F0B8FC206A40
:1017A00030B1802804D040F2C71161A003F0AFFC33
:1017B00094F83D00002520B984F83C50204600F004
:1017C000DDF8242084F83D002068016821F0010143
:1017D00001602068016841F40041016020680168EF
:1017E00021F40041016000F0EDFB604A6168914224
:1017F00002D85F4901E002E05E49884201D201203F
:1018000070BD5D492368B0FBF1F15E6826F03F06CC
:101810000E435E606368934206D94FF49673594352
:101820004FF47A73B1FBF3F12368491C1E6A26F06A
:101830003F06314319626168914210D84900401E49
:10184000B0FBF1F2521CC2F30B02042A01D20420B5
:1018500022E0B0FBF1F0401CC0F30B001CE0A368D9
:10186000F3B301EBC10202EB0116421EB2FBF6F22A
:10187000521C42F48042120549D093B301EBC102DD
:1018800002EB0111401EB0FBF1F0401CC0F30B0055
:1018900040F4804040F400402168CA694CF6FF7370
:1018A0009A431043C861D4E90710014320680268D5
:1018B00022F0C00211430160D4E903010143206812
:1018C000826848F2FF339A4311438160D4E90501ED
:1018D00008432168CA6822F0FF021043C86001E093
:1018E0000EE016E02068016841F001010160256406
:1018F000202084F83D00256384F83E50002070BD10
:1019000001EB4106421EB2FBF6F2521CB3E7012086
:10191000C2E701EB4101401EB0FBF1F0401CC0F3F7
:101920000B00B7E70054004000580040005C004046
:101930002E2E2F447269766572732F53544D3332B5
:10194000463478785F48414C5F4472697665722FFF
:101950005372632F73746D3332663478785F6861C5
:101960006C5F6932632E63007F1A0600A086010057
:1019700080841E0000093D0040420F0010B586B073
:10198000044614216846FEF7C5FD134920688842C5
:1019900020D112480021026842F002020260006871
:1019A00000F002000590C02000901220CDE9010156
:1019B000022003900420049069460948FFF7E4FCE4
:1019C00006481030016841F400110160006800F41D
:1019D0000010059006B010BD0054004030380240A1
:1019E0000004024070B5040033D0264920688842C4
:1019F00003D0AF2124A003F08AFB606878B10128EE
:101A00000DD002280BD0032809D0042807D00528C0
:101A100005D0062803D0B0211BA003F078FBA068F6
:101A2000B0F5805F03D3B12117A003F070FB2168EC
:101A30004CF6CC400860216845F255500860D4E966
:101A4000000141602168A0688860FFF74DFE0546EF
:101A50000DE0012070BD00BFFFF746FE401B31289E
:101A600005D92068C068800701D0032070BD2068B8
:101A7000C0688007F0D121684AF6AA2008600020DB
:101A800070BD0000003000402E2E2F447269766534
:101A900072732F53544D3332463478785F48414C3B
:101AA0005F4472697665722F5372632F73746D335E
:101AB00032663478785F68616C5F697764672E633B
:101AC000000000000248816802781144816070477C
:101AD0003C0000200B4810B5016841F40071016022
:101AE000016841F480610160016841F48071016026
:101AF000032000F0E1F80F2000F006F800F03EF8B7
:101B0000002010BD003C024010B5014688B0002204
:101B1000362000F081F8362000F04CF813480024FD
:101B2000016841F010010160006805A900F0100093
:101B30000690684600F026FA00F044FA0C4940008E
:101B4000B0FBF1F10C480B4A491E026040F2E7324B
:101B5000C0E90324C0E9011401F06EF810B10120BE
:101B600008B010BD044801F055F9F9E740380240CB
:101B700040420F0000100040FC0800200C4882B0DA
:101B8000016841F480410160006800F480400090E9
:101B90000748001F016841F0805101600068002281
:101BA00000F0805000900F21901E02B000F034B879
:101BB0004438024010B5040003D5BE2107A003F04D
:101BC000A6FA002C09DB04F01F01012088406109FE
:101BD000890001F1E021C1F8000110BD2E2E2F4433
:101BE0007269766572732F53544D33324634787868
:101BF0005F48414C5F4472697665722F5372632F60
:101C000073746D3332663478785F68616C5F636FCC
:101C1000727465782E63000070B515460C46064652
:101C2000102A03D3AA2114A003F071FA102C03D3B5
:101C3000AB2111A003F06BFA1E480068C0F3022329
:101C4000C3F107022046042A00D90422191D0729DE
:101C500001D2002300E0DB1E012404FA02F1491E38
:101C6000014099409C40641E2C4021433046BDE811
:101C7000704003F03CBA00002E2E2F447269766546
:101C800072732F53544D3332463478785F48414C49
:101C90005F4472697665722F5372632F73746D336C
:101CA00032663478785F68616C5F636F72746578F0
:101CB0002E6300000CED00E010B5044607280BD0A1
:101CC000062C09D0052C07D0042C05D0032C03D0FA
:101CD000922108A003F01BFA154904F007020868D6
:101CE0004FF6FF03184040EA0220124A10430860F2
:101CF00010BD00002E2E2F447269766572732F532B
:101D0000544D3332463478785F48414C5F447269B1
:101D10007665722F5372632F73746D333266347825
:101D2000785F68616C5F636F727465782E63000022
:101D30000CED00E00000FA052DE9F0470E46040026
:101D40007DD02068401E0E2804D94FF417717AA068
:101D500003F0DDF996B1012E10D0022E0ED0032E25
:101D60000CD0042E0AD0052E08D0062E06D0072E41
:101D700004D040F25D2170A003F0C9F9DFF8F081D2
:101D8000D8F80000F7B200F00700B04207D288F898
:101D90000070D8F8000000F00700B0424FD1206872
:101DA000744D810729D5400703D5286840F4E050D9
:101DB00028602078000703D5286840F46040286038
:101DC000A068A0B1802812D0902810D0A0280ED0F2
:101DD000B0280CD0C0280AD0D02808D0E02806D0DF
:101DE000F02804D04FF4207153A003F090F9286834
:101DF000A16820F0F000084328602078C00743D095
:101E0000DFF870916068A9F1080988B1012822D033
:101E1000022824D0032822D040F2872146A003F0D4
:101E200076F96068012816D0022818D0032816D049
:101E3000D9F800008007002833DA286800E030E095
:101E4000616820F0030008432860FFF74DFC8146DD
:101E500041F2883A11E0D9F800008003EBE7D9F8A5
:101E600000008001E7E700BFFFF73EFCA0EB09019F
:101E7000514502D90320BDE8F0872868616800F069
:101E80000C00B0EB810FEFD1D8F80010404601F004
:101E90000701B14207D90770006800F00700B0429F
:101EA00001D00120E7E720784FF4805640074FF437
:101EB000A0574FF4C0584FF4E05914D5E06860B112
:101EC000B0420AD0B84208D0404506D0484504D0B8
:101ED00040F2C52118A003F01AF92868E16820F43F
:101EE000E050084328602078000715D5206960B1CC
:101EF000B0420AD0B84208D0404506D0484504D088
:101F00004FF433710CA003F002F92868216920F422
:101F1000604040EAC100286000F074F82968164A61
:101F2000C1F30311515CC8401449086014480068AB
:101F3000FFF7EAFD00209EE72E2E2F44726976659A
:101F400072732F53544D3332463478785F48414C86
:101F50005F4472697665722F5372632F73746D33A9
:101F600032663478785F68616C5F7263632E6300F9
:101F7000003C024008380240886D00082400001030
:101F8000400000200F2202600C4A136803F0030394
:101F90004360136803F0F0038360136803F4E053B5
:101FA000C36012684FF4E05303EAD20202610448AE
:101FB000006800F007000860704700000838024021
:101FC000003C02400448054900680968044AC1F31E
:101FD0008221515CC840704724000010083802403C
:101FE000986D00080448054900680968044AC1F36F
:101FF0004231515CC840704724000010083802404C
:10200000986D0008104810B5006810F00C010F48DA
:1020100018D0042916D0082914D10B4C241F21688C
:1020200001F03F02216821680023C1F38811A1FB60
:102030000001FEF779F92168C1F30141491C49000B
:10204000B0FBF1F010BD0000083802400024F4009D
:102050002DE9F84F04007DD020680F2803D9E8212E
:10206000F7A003F054F82078DFF80C94C007A9F12A
:10207000040555D060684FF480364FF4A02738B17E
:10208000B04205D0B84203D0ED21EDA003F03FF8F7
:10209000F948001D0168C1F38101012908D00068D9
:1020A000C0F3810002280AD1D9F80000400206D509
:1020B0002868800334D560680028CCD030E06068A0
:1020C000B04203D1286840F480300CE0B842286860
:1020D00003D140F480202860F4E720F480302860A9
:1020E000286820F480202860606860B1FFF7FCFA5F
:1020F000064604E0FFF7F8FA801B64287ED82868BB
:102100008003F7D50CE0FFF7EFFA064605E000BFC5
:10211000FFF7EAFA801B6428F0D828688003F7D418
:102120002078DFF8588380074FF0000A56D5E06822
:1021300030B1012804D040F21F11C1A002F0E7FF26
:1021400020691F2804D94FF49071BDA002F0DFFF71
:10215000C94800E092E0001D016811F00C0F08D0A2
:102160000068C0F38100022810D1D9F800004002B5
:102170000CD42868800702D5E06801287ED1286841
:10218000216920F0F80040EAC10017E0E068B8B12A
:102190000120C8F80000FFF7A7FA064605E000BFD7
:1021A000FFF7A2FA801B0228A8D828688007F7D575
:1021B000286820F0F801206941EAC00028600DE09D
:1021C000C8F800A0FFF790FA064604E0FFF78CFA83
:1021D000801B022892D828688007F7D4207800074F
:1021E0002ED5A54EA64F60697036D0B1012808D013
:1021F0004FF4B07192A002F08AFF00E04BE16069F9
:1022000078B101203860FFF76FFA074605E000BF9C
:10221000FFF76AFAC01B0228C6D830688007F7D5D6
:102220000EE0C7F800A0FFF75FFA074605E000BF21
:10223000FFF75AFAC01B0228B6D830688007F7D4D7
:102240002078400776D5A068002740B1012806D045
:10225000052804D04FF4C67179A002F058FFDFF8CA
:1022600018B20BF13C0BDBF80000C0000DD4DBF81A
:10227000001041F08051CBF8001000E038E1DBF8AD
:102280000000012700F0805000907E4E3068C005AD
:1022900011D4306840F480703060FFF725FA009068
:1022A00006E000BFFFF720FA0099401A022891D8F3
:1022B0003068C005F6D5704EA0686C3601280FD086
:1022C0000528306810D020F001003060306820F020
:1022D00004003060A068B8B1FFF706FA00900FE084
:1022E000306840F00100F4E740F004003060F7E7A8
:1022F000FFF7FAF90099411A41F2883081428BD8F0
:1023000030688007F4D50EE0FFF7EEF9009007E0A3
:10231000FFF7EAF90099411A41F2883081428BD8DF
:1023200030688007F4D42FB1DBF8001021F0805121
:10233000CBF80010A069002876D0012809D0022827
:1023400007D040F2CF113EA002F0E1FEA0690028C4
:10235000F2D04948001D0068C0F381000228A0693E
:102360006DD0022805D0C8F860A0FFF7BDF904467B
:1023700094E0E06938B1B0F5800F04D04FF4EC710F
:102380002FA002F0C4FE206A3F2804D940F2D911E0
:102390002BA002F0BCFE606A3238B0F5BF7F04D9D2
:1023A0004FF4ED7126A002F0B2FEA06A02280AD016
:1023B000042808D0062806D0082804D040F2DB11F3
:1023C0001FA002F0A4FEE06A801E0D2804D94FF47D
:1023D000EE711BA002F09BFE4746C8F860A0FFF715
:1023E00083F9064605E000BFFFF77EF9801B02284F
:1023F00051D828688001F7D4D4E907010843A16ABD
:10240000214A490802EB0141626A41EA821108430C
:1024100094F82C1040EA0161C9F8001001203866D8
:10242000FFF762F9044606E064E000BFFFF75CF9DD
:10243000001B02282FD828688001F7D55AE031E028
:102440002E2E2F447269766572732F53544D33329A
:10245000463478785F48414C5F4472697665722FE4
:102460005372632F73746D3332663478785F6861AA
:102470006C5F7263632E63000438024000004742C1
:10248000800E4742007000400000FFFFFFF72CF96C
:10249000001B022802D90320BDE8F88F28688001BC
:1024A000F4D427E00128F7D0D9F80000E26900F45D
:1024B000800191421CD1226A00F03F01914217D164
:1024C00047F6C071626A0140B1EB821F10D1A26A67
:1024D0004FF0FF3300F4403103EB5202B1EB024FF7
:1024E00006D194F82C1000F07060B0EB016F01D0B1
:1024F0000120D1E70020CFE770B504007ED08049ED
:10250000206888420AD07F49884207D07E498842A5
:1025100004D04FF4A1717DA002F0F9FD60684FF482
:10252000827630B1B04204D040F2431177A002F07D
:10253000EEFDA06850B1B0F5806F07D0B0F5004F48
:1025400004D04FF4A27171A002F0E1FDE068B0F593
:10255000006F05D020B140F245116CA002F0D7FD0C
:10256000A069B0F5007F08D038B1B0F5802F04D055
:102570004FF4A37165A002F0CAFDE06990B108288C
:1025800010D010280ED018280CD020280AD02828C7
:1025900008D0302806D0382804D040F247115BA07C
:1025A00002F0B5FD206A30B1802804D04FF4A47148
:1025B00056A002F0ACFD606A002548B3102806D092
:1025C00040F2491151A002F0A2FD606A00B3E06937
:1025D00090B1082810D010280ED018280CD0202830
:1025E0000AD0282808D0302806D0382804D040F255
:1025F0005B1146A002F08BFD256100E006E06561FD
:10260000A56294F85100002830D034E0012070BD5C
:10261000206930B1022804D04FF4A6713BA002F02B
:1026200076FD606930B1012804D040F24D1137A029
:1026300002F06DFD6068B04216D1E0690028DFD07D
:102640000828DDD01028DBD01828D9D02028D7D0F2
:102650002828D5D03028D3D03828D1D040F25111F5
:102660002AA002F054FDCBE7E561C9E784F8505099
:10267000204600F067F8022084F8510020680168C5
:1026800021F040010160A088218900F4827001F4EA
:1026900004410843A18901F400610843217C01F051
:1026A00002010843217D01F001010843218B01F45F
:1026B00000710843217F01F03801084394F820108D
:1026C00001F080010843218D01F400510843216885
:1026D0000860A069042101EA104094F8241001F078
:1026E00010010843216848602068C16921F4006135
:1026F000C1616565012084F85100002070BD0000B3
:102700000030014000380040003C00402E2E2F4495
:102710007269766572732F53544D3332463478782C
:102720005F48414C5F4472697665722F5372632F24
:1027300073746D3332663478785F68616C5F737080
:10274000692E63002DE9F04F87B0044614216846D6
:10275000FDF7E0FE8748864BD4F800C00221052231
:102760004026002507159C4551D1824B1433D3F8E0
:1027700000C04CF4805CC3F800C01B6803F48053B5
:102780000593036843F001030360006800F0010053
:102790000590E0208DE82300CDE9031269467648D4
:1027A000FEF7F2FDDFF8D881744940464FF0C06B68
:1027B000C8F80010C0E901B5C0E90357C8F81450C3
:1027C0004FF44039C8F81850C8E90759BA46C8F854
:1027D0002450FEF7F7FB08B1FEF779F86748684F19
:1027E0004830C4F84C806037C8F83840C7E9026503
:1027F000C7E904A5BD61C7E907597D62C7E9000BB8
:10280000384653E0A764BC6307B0BDE8F08F594B6E
:10281000DFF870811033C4454FD1D3F800C04CF4B9
:10282000804CC3F800C01B6803F480430593036821
:1028300043F002030360006800F0020005904FF4CB
:1028400060408DE82300CDE9031269464E48FEF74B
:102850009BFDDFF82C814D4908F1C0084046B94680
:10286000C0E90015C8F80850C0E90357C8F814506B
:10287000C8F81850C8F81C50C8F82050C8F82450A0
:10288000FEF7A0FB08B1FEF722F84048404FC4F81D
:102890004C801830C8F8384087E86100C7E9035910
:1028A0007D61BD61FD613D6238467D62FEF78AFB58
:1028B0000028A7D0FEF70BF8A4E7364A9445A3D129
:1028C0001A68AA4642F400421A601A6802F40042EA
:1028D0000592026842F004020260006800F0040001
:1028E00005904FF4E0508DE823000620CDE9031059
:1028F00069462948FEF748FDDFF89480234908F12E
:10290000600840464839C0E90015C8F80850C0E9D9
:102910000357B946C8F814504FF44037C8F8185058
:10292000C8E90757C8F82450FEF74CFB08B1FDF77B
:10293000CEFF174D1548C4F84C80C0356030C8F83C
:1029400038402860C5E901A6C5E903A9C5F814A067
:10295000C5F818A0C5E907A72846C5F824A0FEF7C2
:1029600031FB08B1FDF7B3FFA564AC634CE7000091
:102970000030014030380240000002401064024044
:10298000CC0500200038004000040240586002409E
:10299000EC060020003C00400008024070477047F1
:1029A00070B50C46054600683E49884207D03E494E
:1029B000884204D040F2EE713CA002F0A8FB2068EF
:1029C000B0F5006F05D020B140F2EF7137A002F0F2
:1029D0009EFB6068B0F5806F05D020B14FF4FE61BA
:1029E00032A002F094FBA06868B1B0F5807F0AD0F5
:1029F000B0F5007F07D0B0F5407F04D040F2F17110
:102A00002AA002F084FBE068FF2804D940F2F271AA
:102A100026A002F07CFB2069B0F5805F05D020B1D4
:102A200040F2F37121A002F072FB606938B1B0F599
:102A3000005F04D040F2F4711CA002F068FBE06972
:102A4000B0F5804F05D020B140F2F57117A002F02B
:102A50005EFB95F83C00012822D0012085F83C005F
:102A6000E068A26820F440701043626820F480603F
:102A70001043226820F400601043226920F4805043
:102A80001043626920F400501043E269002120F4F1
:102A9000804010432A68506485F83C10002070BDC7
:102AA000022070BD00000140000401402E2E2F4482
:102AB0007269766572732F53544D33324634787889
:102AC0005F48414C5F4472697665722F5372632F81
:102AD00073746D3332663478785F68616C5F7469E3
:102AE0006D5F65782E6300002DE9F05F0446006895
:102AF0003A4E3B4FDFF8EC80DFF8EC90DFF8ECA0CB
:102B00000D464FF0804BB04215D0584513D0B84217
:102B100011D040450FD048450DD04FEAB64188420C
:102B200009D03349884206D0504504D040F2B171F3
:102B300030A002F0ECFA286890B1102810D02028BC
:102B40000ED030280CD040280AD0502808D0602859
:102B500006D0702804D040F2B27126A002F0D7FA55
:102B60006868802805D020B140F2B37121A002F03E
:102B7000CEFA94F83C0001282DD0012284F83C20A4
:102B8000022084F83D00216848688B6820F0700CB2
:102B9000286840EA0C0048602068B0420FD05845D1
:102BA0000DD0B8420BD0404509D0484507D050451C
:102BB00005D01F49884202D01E49884204D1696865
:102BC00023F080031943816084F83D20002084F8BD
:102BD0003C00BDE8F09F0220FBE700000000014040
:102BE0000004004000080040000C004000040140C8
:102BF000001400402E2E2F447269766572732F5395
:102C0000544D3332463478785F48414C5F447269A2
:102C10007665722F5372632F73746D333266347816
:102C2000785F68616C5F74696D5F65782E63000022
:102C3000004001400018004010B5040058D03F4942
:102C4000206888422BD0B0F1804F28D03C49884280
:102C500025D03C49884222D03B4988421FD03B497D
:102C600088421CD03A49884219D03A49884216D045
:102C70003949884213D03949884210D038498842AE
:102C80000DD0384988420AD03749884207D03749A1
:102C9000884204D040F2131135A002F038FAA0683F
:102CA00060B110280AD0202808D0402806D060281B
:102CB00004D04FF48A712EA002F029FA206950B195
:102CC000B0F5807F07D0B0F5007F04D040F2151139
:102CD00027A002F01CFAA06930B1802804D04FF47C
:102CE0008B7123A002F013FA94F83D0010B107E0B5
:102CF000012010BD002084F83C00204600F054F86C
:102D0000022084F83D00211D206801F055FD0120BE
:102D100084F8460084F83E0084F83F0084F84000C0
:102D200084F8410084F8420084F8430084F84400A9
:102D300084F8450084F83D00002010BD00000140EB
:102D40000004004000080040000C0040001000405B
:102D500000140040000401400040014000440140D4
:102D60000048014000180040001C004000200040C6
:102D70002E2E2F447269766572732F53544D333261
:102D8000463478785F48414C5F4472697665722FAB
:102D90005372632F73746D3332663478785F686171
:102DA0006C5F74696D2E630038B50546006815497F
:102DB000884225D1144900200A6842F001020A60C5
:102DC0000968134C01F001010091104921604FF096
:102DD000406161604021C4E902100901216149009C
:102DE00061618900C4E906104FF44031C4E908105C
:102DF0002046FEF7E7F808B1FDF769FD2C62A563F0
:102E000038BD0000000001404438024088640240A0
:102E10009C0800202DE9F05F044600682F4D304EDD
:102E2000304FDFF8C480DFF8C490DFF8C4A0DFF8CB
:102E3000C4B0A84226D0B0F1804F23D0B04221D0F8
:102E4000B8421FD040451DD04FEAB541884219D045
:102E50002949884216D0484514D0504512D02749F8
:102E600088420FD0264988420CD058450AD02549BF
:102E7000884207D02449884204D040F2CF1123A0D1
:102E800002F045F994F83D00012802D00120BDE888
:102E9000F09F022084F83D002068C16841F00101E4
:102EA000C1602068A8420ED0B0F1804F0BD0B04274
:102EB00009D0B84207D0404505D0484503D0504519
:102EC00001D0584504D1816801F00701062903D0DB
:102ED000016841F0010101600020D8E700000140D5
:102EE0000004004000080040000C004000040140C5
:102EF0000040014000180040001400400044014020
:102F000000480140001C0040002000402E2E2F44AD
:102F10007269766572732F53544D33324634787824
:102F20005F48414C5F4472697665722F5372632F1C
:102F300073746D3332663478785F68616C5F74697E
:102F40006D2E63002DE9F84F05460020009095F89E
:102F50003C000C46012841D0012085F83C000220AD
:102F600085F83D0020684FF4805B584516D0B0F5D9
:102F7000005F13D090B1102810D020280ED0302838
:102F80000CD040280AD0502808D0602806D07028DD
:102F900004D041F2BB41D4A002F0B9F8286881689E
:102FA00021F0770121F47F4181602068DC49DD4A0E
:102FB000DD4BDE4EDE4FDFF87CC3DFF87C834FF065
:102FC00080494FF4004A50287ED00FDC202804D0DE
:102FD00007DC0028FBD0102877D161E10220BDE892
:102FE000F88F3028F9D04028F6D126E160286DD03E
:102FF000702874D0584544D04FF400584045EBD168
:10300000286888420ED048450CD090420AD0984299
:1030100008D0B04206D0B84204D041F2E641B2A096
:1030200002F075F8A06858B1584509D0404507D05E
:10303000B0F5405F04D041F2E941ABA002F067F87F
:103040006068504509D040B1022806D00A2804D053
:1030500041F2EA41A4A002F05AF8E0680F2804D92E
:1030600041F2EB41A0A002F052F8D4E90121E3685B
:10307000286801F005FC2868816841F4804181607E
:1030800029E128688842FBD04845F9D09042F7D022
:103090009842F5D0B042F3D0A8498842F0D0A84970
:1030A0008842EDD0B842EBD06045E9D0A5498842CE
:1030B000E6D0A5498842E3D04045E1D0A349884203
:1030C000DED0A349884203E04FE002E180E006E061
:1030D000D6D041F2C74184A002F019F8FBE028687D
:1030E000884212D0484510D090420ED098420CD061
:1030F000B0420AD0B84208D0604506D0404504D05E
:1031000041F2CE4178A002F002F8A06860B15845C3
:103110000AD0B0F5005F07D0B0F5405F04D041F2AF
:10312000D14171A001F0F3FF6068504509D040B172
:10313000022806D00A2804D041F2D2416AA001F048
:10314000E6FFE0680F2804D941F2D34166A001F000
:10315000DEFFD4E90121E368286801F091FB2968CA
:10316000886840F077008860B5E02868884212D00F
:10317000484510D090420ED098420CD0B0420AD0B0
:10318000B84208D0604506D0404504D041F2FA412B
:1031900055A001F0BCFF6068504509D040B102283D
:1031A00006D00A2804D041F2FD414FA001F0AFFF44
:1031B000E0680F2804D941F2FE414BA001F0A7FFBF
:1031C000E2686168286801F01DFD5021286831E03F
:1031D0002868884212D0484510D090420ED09842BC
:1031E0000CD0B0420AD0B84208D0604506D0404565
:1031F00004D041F20A513CA001F089FF60685045BB
:1032000009D040B1022806D00A2804D041F20D515D
:1032100035A001F07CFFE0680F2804D941F20E517F
:1032200031A001F074FFE2686168286801F0FBFCDE
:103230006021286801F02EFB4DE02868884212D0FA
:10324000484510D090420ED098420CD0B0420AD0DF
:10325000B84208D0604506D0404504D041F21A512A
:1032600021A001F054FF6068504509D040B1022808
:1032700006D00A2804D041F21D511BA001F047FFDF
:10328000E0680F2804D941F21E5117A001F03FFF5A
:10329000E2686168286801F0B5FC40212868C9E748
:1032A0002868884212D0484510D090420ED09842EB
:1032B0000CD0B0420AD0B84208D0604506D0404594
:1032C00004D041F22D5108A001F021FF21682868A7
:1032D000B0E701200090012085F83D00002085F82E
:1032E0003C0000987BE600002E2E2F447269766524
:1032F00072732F53544D3332463478785F48414CC3
:103300005F4472697665722F5372632F73746D33E5
:1033100032663478785F68616C5F74696D2E630023
:10332000000001400004004000080040000C004084
:10333000000401400040014000180040001000401F
:10334000001400400044014000480140001C0040BF
:1033500000200040704770B50446006801694FF0D6
:103360000005C943890715D4C168C943890711D429
:10337000E91E0161012020772068806980072046CE
:1033800002D0FFF7E7FF04E000F0DAF8204600F093
:10339000D9FA257720680169C943490717D4C1685C
:1033A000C943490713D46FF004010161022020775B
:1033B0002068806910F4407F204602D0FFF7CAFFE2
:1033C00004E000F0BDF8204600F0BCFA2577206844
:1033D0000169C943090716D4C168C943090712D452
:1033E0006FF008010161042020772068C069800720
:1033F000204602D0FFF7AEFF04E000F0A1F820461F
:1034000000F0A0FA257720680169C943C90617D4DE
:10341000C168C943C90613D46FF0100101610820C7
:1034200020772068C06910F4407F204602D0FFF763
:1034300091FF04E000F084F8204600F083FA25773D
:1034400020680169C943C90708D1C168C943C907D0
:1034500004D1891E0161204600F076FA20680169D6
:10346000C943090609D4C168C943090605D46FF0E8
:10347000800101612046FFF791FA20680169C94384
:10348000490609D4C168C943490605D46FF0400113
:103490000161204600F062FA20680169C94389068B
:1034A0000BD4C168C943890607D46FF020010161BC
:1034B0002046BDE87040FFF772BA70BD10B586B007
:1034C000044614216846FDF725F82368174C0022AE
:1034D00017480221A34212D1036843F0010303609D
:1034E000006800F0010005904FF470608DE807005F
:1034F000032003900120049069460E4811E00E4C11
:10350000A34210D1036843F002030360006800F097
:103510000200059020208DE8070003910491694680
:103520000648FDF731FF06B010BD00000000014065
:103530003038024000000240000400400004024015
:10354000704700002DE9F05F16000D4604464FF06D
:1035500000090CD0042E0AD0082E08D00C2E06D05C
:103560003C2E04D041F2770177A001F0D0FD28680D
:10357000602806D0702804D041F2780172A001F0D2
:10358000C6FDA86830B1022804D041F279016EA0CE
:1035900001F0BDFD286930B1042804D041F27A0160
:1035A00069A001F0B4FD94F83C0001281CD0012072
:1035B0007349744A744B754FDFF8D4C1DFF8D4A156
:1035C000DFF8D4B184F83C004FF0804876B1042E87
:1035D00041D0082E6AD00C2E7DD08146002084F880
:1035E0003C004846BDE8F09F0220FBE72068884287
:1035F0001ED040451CD090421AD0984218D0B842F4
:1036000016D0604514D0504512D0644988420FD07E
:10361000634988420CD058450AD06249884207D095
:103620006149884204D041F2840147A001F06FFD56
:103630002946206801F036F92068816941F00801C7
:1036400081612068816921F00401816120688169BC
:103650002A69114328E02068884212D0404510D0E2
:1036600090420ED098420CD0B8420AD0604508D0A3
:10367000504506D0584504D041F2950132A001F0E2
:1036800046FD2946206801F07FF92068816941F4F0
:10369000006181612068816921F480618161206815
:1036A00081692A6941EA0221816197E7206888429D
:1036B0000ED040450CD090420AD0984208D0B84273
:1036C00006D0604504D041F2A6011FA001F01FFD05
:1036D0002946206800E010E001F0CCF92068C169BB
:1036E00041F00801C1612068C16921F00401C16194
:1036F0002068C1692A69114324E0206888420ED0FD
:1037000040450CD090420AD0984208D0B84206D02A
:10371000604504D041F2B7010BA001F0F8FC294646
:10372000206801F01DFA2068C16941F40061C1619F
:103730002068C16921F48061C1612068C1692A697A
:1037400041EA0221C16149E72E2E2F447269766554
:1037500072732F53544D3332463478785F48414C5E
:103760005F4472697665722F5372632F73746D3381
:1037700032663478785F68616C5F74696D2E6300BF
:10378000000001400004004000080040000C004020
:103790000004014000400140001800400044014086
:1037A00000480140001C00400020004010B504000B
:1037B00058D03F49206888422BD0B0F1804F28D0A4
:1037C0003C49884225D03C49884222D03B49884226
:1037D0001FD03B4988421CD03A49884219D03A4907
:1037E000884216D03949884213D03949884210D0CE
:1037F000384988420DD0384988420AD03749884232
:1038000007D03749884204D040F2295135A001F051
:103810007EFCA06860B110280AD0202808D040287B
:1038200006D0602804D040F22A512EA001F06FFC8F
:10383000206950B1B0F5807F07D0B0F5007F04D08B
:1038400040F22B5127A001F062FCA06930B1802822
:1038500004D040F22C5123A001F059FC94F83D0013
:1038600010B107E0012010BD002084F83C00204684
:1038700000F054F8022084F83D00211D206800F07B
:103880009BFF012084F8460084F83E0084F83F0046
:1038900084F8400084F8410084F8420084F8430032
:1038A00084F8440084F8450084F83D00002010BDF1
:1038B000000001400004004000080040000C0040EF
:1038C000001000400014004000040140004001408E
:1038D000004401400048014000180040001C004026
:1038E000002000402E2E2F447269766572732F538C
:1038F000544D3332463478785F48414C5F447269A6
:103900007665722F5372632F73746D333266347819
:10391000785F68616C5F74696D2E630008B500683C
:103920000649884208D10648016841F00201016059
:10393000006800F00200009008BD00000004004094
:10394000403802407047000000680349884201D1B6
:10395000FEF7B8B87047000000100040704738B557
:10396000044690F83E00202822D181B17AB194F823
:103970003C0001281CD0012084F83C002063204634
:1039800001F056FB002803D1216B012901D0012051
:1039900038BD21680A684968009121680C3151E8F6
:1039A000002F42F0100241E80023002BF5D138BD72
:1039B000022038BD10B50C4600680C49884214D16D
:1039C000601EFF2809D80A49224601F58070FCF7DD
:1039D00067FD0848448001210170BDE810404FF4A4
:1039E000807203490448FFF7BABF10BD004C004085
:1039F0007800002000000010140100107047000043
:103A0000F8B5016804460868CA684B6910F00F0FE2
:103A10004FF0000559D003F0010602F490773743C8
:103A200065D0C10705D0D10503D5216C41F0010156
:103A30002164410705D5D90703D0216C41F002016B
:103A40002164810705D5D90703D0216C41F0040119
:103A50002164010707D502F02001314303D0216C16
:103A600041F008012164216C00293AD0800604D578
:103A7000900602D5204601F0ABF920684069216C20
:103A8000C0F38010090700D460B3204601F06BF941
:103A900020684069400621D52068143050E8001F96
:103AA00021F0400140E80012002AF5D1A06BA8B136
:103AB0006C490165A06BFDF7A2F9002811D0A06B3D
:103AC000016D01B0BDE8F040084783060FD59306AD
:103AD0000DD52046BDE8F84001F07AB92046FFF741
:103AE0008DFFF8BD2046FFF789FF2564F8BD266BE2
:103AF0002023012E79D1C60677D5D60675D508685C
:103B0000486800904869400640D5A16B0868406845
:103B10000004000CEAD0A28D8242E7D9E085C86992
:103B2000B0F5807F2DD020680C3050E8001F21F4C4
:103B3000807140E80012002AF5D12068143050E866
:103B4000001F21F0010140E80012002AF5D1206891
:103B5000143050E8001F21F0400140E80012002A14
:103B6000F5D184F83E30256320680C3050E8001F02
:103B700021F0100140E80012002AF5D1A06BFDF7FA
:103B8000F5F8A08DE18D401A81B229E0A08DE18D7C
:103B9000401A81B2E08D0028A8D00029A6D0206864
:103BA0000C3050E8002F22F4907240E80026002EDE
:103BB000F5D12068143050E8002F22F0010240E8CF
:103BC0000026002EF5D184F83E30256320680C30A5
:103BD00050E8002F22F0100240E80023002BF5D11E
:103BE0002046FFF7E7FEF8BDFFE705062BD51506D3
:103BF00029D594F83D002128F5D1A068B0F5805F63
:103C000001D12069B0B1206A411C2162216800788D
:103C10004860E08C401E0004000CE084E3D1206882
:103C2000C16821F08001C1602068C16841F0400195
:103C3000C160D8E7206A0088C0F308004860206AA5
:103C4000801C2062E5E74006CDD55006CBD5CA687A
:103C5000204622F04002CA6084F83D3000F080F92E
:103C6000C1E70000714C000870B5040023D0A069C2
:103C70003B4900283B4A3C4B3C4D20681DD08842C4
:103C80000CD090420AD0984208D0A84206D04FF4F7
:103C9000B97137A001F03BFAA06908B3A069B0F58B
:103CA000807F1DD0B0F5007F1AD0B0F5407F17D0CF
:103CB00040F2731111E0012070BD884210D0904293
:103CC0000ED098420CD03949884209D038498842F0
:103CD00006D0A84204D040F2771125A001F017FACF
:103CE000A06838B1B0F5805F04D040F2791120A00F
:103CF00001F00DFAE06938B1B0F5004F04D04FF48F
:103D0000BD711BA001F003FA94F83D00002520B915
:103D100084F83C50204600F04DF8242084F83D0003
:103D20002068C16821F40051C160204601F0B0F85C
:103D30002068016921F4904101612068416921F006
:103D40002A0141612068C16841F40051C1602564C5
:103D5000202084F83D0084F83E00002070BD000063
:103D600000100140004400400048004000140140A1
:103D70002E2E2F447269766572732F53544D333251
:103D8000463478785F48414C5F4472697665722F9B
:103D90005372632F73746D3332663478785F686161
:103DA0006C5F756172742E6300000000004C00406F
:103DB000005000402DE9F04F87B0064614216846B8
:103DC000FCF7A8FB5E495D4DD6F800C05C48103991
:103DD000032702220123DFF86CB100244FF00069B1
:103DE0004FF4806AAC453AD1056845F4002505607A
:103DF000006800F400200590086840F001000860A9
:103E00000868009700F0010005900820CDE9034004
:103E100069465846CDE90123FDF7B6FA4B4D4A48AD
:103E20002860C5E90194C5E9034A6C614FF480300C
:103E3000AC61C5E9074028466C62FDF7C3F808B1DC
:103E4000FCF745FDB563002205213420AE63FDF784
:103E5000E3FE3420FDF7AEFE07B0BDE8F08FDFF8DB
:103E6000F0800725C4454BD1076847F40037076049
:103E7000006800F400300590086840F00100086018
:103E80000868694600F0010005900C208DE80D00DF
:103E9000CDE903255846FDF777FA2C4D2A486035C1
:103EA00048302860C5E90194C5E9034A4F466C6172
:103EB0004FF40039AC61C5E90749D04628466C6229
:103EC000FDF780F808B1FCF702FDB563AE631F4D46
:103ED0001D48C0356030E5E802074020A5E8110123
:103EE0001A4845F81449C030AC61C5E907496C620D
:103EF000FDF768F808B1FCF7EAFC7563AE63ABE761
:103F0000144B9C45A8D1036843F4802303600068E8
:103F100000F480200590086840F0020008600868FE
:103F2000049500F0020005904FF440608DE8950084
:103F300069460948FDF728FA8EE70000004C00406A
:103F4000403802400000024040600240E0010010A2
:103F500000440040004800400004024070477047A1
:103F60007047FEE77FB500211C4800910191029146
:103F7000194A0391026001244FF400320461C0E940
:103F80000121017680F82010154AC0E90A21022596
:103F9000C561C16080F830104461FCF7A7FD08B12D
:103FA000FCF795FC0A20CDE9000406200290694642
:103FB0000A48FCF7B1FC08B1FCF789FC0B20CDE9FD
:103FC0000005694602940548FCF7A6FC002801D0CC
:103FD000FCF77DFC7FBD0000002001407800001050
:103FE0000100000F314808B5016841F4800101600B
:103FF000016801F480010091016841F40011016041
:104000000068002200F40010009005210B20FDF74D
:1040100003FE0B20FDF7CEFD002207210D20FDF74A
:10402000FBFD0D20FDF7C6FD002208210E20FDF747
:10403000F3FD0E20FDF7BEFD002208210F20FDF745
:10404000EBFD0F20FDF7B6FD002206211020FDF745
:10405000E3FD1020FDF7AEFD002206211120FDF743
:10406000DBFD1120FDF7A6FD002205212F20FDF725
:10407000D3FD2F20FDF79EFD002205213820FDF7FE
:10408000CBFD3820FDF796FD002205213B20FDF7F2
:10409000C3FD3B20FDF78EFD002205214420FDF7E6
:1040A000BBFDBDE808404420FDF784BD3038024028
:1040B00010B504490448FCF70CFC0249491E08707D
:1040C00010BD00001D0000100800001010B50022F7
:1040D000334B1146334801F005F9334C304A132174
:1040E0006063603A182001F08BF82D4A6062483A0C
:1040F0002221012001F084F8294AA062303A2021CF
:10410000012001F07DF8264AE062183A01210820DA
:1041100001F076F82063254A0021254801F09CF83B
:10412000224A206024320021224801F095F81F4ADB
:10413000606048320021204801F08EF81B4AA060E0
:104140006C3200211D4801F087F8184AE060903277
:1041500000211B4801F080F8144A2061B43200218C
:10416000184801F079F80E4A6061CC3A00211648EF
:1041700001F072F80A4AA061A83A0021134801F040
:104180006BF8074AE061843A0021114801F064F8B5
:1041900020620348103000F0EFFFA06310BD000064
:1041A000606D00089D46000800000020BC6B000800
:1041B000A7460008AF460008D7460008C7460008D3
:1041C0009F460008DF460008CF460008BF460008AB
:1041D000B74600082DE9F04F87B014216846FCF778
:1041E00099F951480024016841F004010160016817
:1041F00001F004010591016841F08001016001684E
:1042000001F080010591016841F001010160016840
:1042100001F001010591016841F0020101600168AE
:1042200001F002010591016841F008010160006898
:10423000DFF8F8A000F00800059001221021504698
:10424000FDF71CFA41F20829012249463848FDF7DA
:1042500015FA4EF2CC300325CDE9000569460294EB
:104260005046FDF791F848F210004FF48817CDE959
:104270000007DFF8C0B0694602945846FDF784F89D
:1042800010204FF001080226CDE90008CDE90246D2
:1042900069465046FDF778F82020CDE900076946C9
:1042A00002945046FDF770F840F21710CDE9000572
:1042B000694602941E48FDF767F8CDE90246CDE94C
:1042C000009869461A48FDF75FF8F002CDE900054D
:1042D000694602945846FDF757F80420CDE90006D8
:1042E00002940820CDE9035069461348FDF74CF8C5
:1042F000002207210A20FDF78FFC0A20FDF75AFC57
:10430000002205211720FDF787FC1720FDF752FC3E
:10431000002205212820FDF77FFC2820FDF74AFC1C
:1043200007B0BDE8F08F00003038024000080240BE
:104330000004024000000240000C02400D4810B58D
:104340000B4901600C49416000214FF480428160BB
:10435000C0E9031241618161C1610162FDF7CAF9DF
:10436000002803D0BDE81040FCF7B1BA10BD000032
:1043700000540040C0000010801A0600094810B523
:10438000074901600021416040F6FF718160FDF73F
:1043900029FB002803D0BDE81040FCF798BA10BDF7
:1043A00000300040B8040020104810B50E490160EC
:1043B0004FF482714160002102228160C0E9031242
:1043C00001224261520282611822C0E90721416242
:1043D00081620A21C162FEF78FF8002803D0BDE890
:1043E0001040FCF774BA10BD00300140C404002036
:1043F000104810B50E4901604FF4827141600021F0
:104400008160C1604FF400720161C0E90512302281
:10441000C0E90721416281620A21C162FEF76CF89E
:10442000002803D0BDE81040FCF751BA10BD0000D1
:10443000003800401C050020104810B50E490160EE
:104440004FF482714160002102228160C0E90312B1
:1044500001224261520282611822C0E907214162B1
:1044600081620A21C162FEF747F8002803D0BDE847
:104470001040FCF72CBA10BD003C00407405002031
:1044800010B596B000240F941094119412941394C4
:104490001C2168461494FCF73DF8202107A8FCF77E
:1044A00039F834483249C0E9001440F21711C0E924
:1044B0000241046144618461FEF7BEFB08B1FCF770
:1044C00006FA4FF480500F900FA92A48FEF73AFDE4
:1044D00008B1FCF7FCF92748FFF768F908B1FCF7C9
:1044E000F6F9139413A923481494FEF7FDFA08B1C2
:1044F000FCF7EDF96020CDE90004029403940494E4
:104500000594002269461B480694FFF71BF808B182
:10451000FCF7DDF9042269461648FFF713F808B1E5
:10452000FCF7D5F9082269461248FFF70BF808B1E5
:10453000FCF7CDF90C2269460E48FFF703F808B1E5
:10454000FCF7C5F90794089409944FF400500A94B5
:10455000CDE90B4007A907480E94FEF721FA08B1F0
:10456000FCF7B5F90348FEF7A9FF16B010BD00002F
:10457000000001400C08002010B58AB00024079408
:104580001C2168460894FBF7C5FF16481449C0E98A
:1045900000144AF25501C0E9024104618461FFF749
:1045A00005F908B1FCF793F9079407A90D48089499
:1045B000FEF79AFA08B1FCF78AF96020CDE9000409
:1045C00002940422694607480494FEF7BBFF08B131
:1045D000FCF77DF90348FEF771FF0AB010BD00003B
:1045E00000040040540800200C4810B50A4901603E
:1045F0004FF416514160002181600C22C160C0E976
:1046000004128161C161FFF72FFB002803D0BDE8D0
:104610001040FCF75CB910BD004C004014010010C4
:104620000D4810B50B4901600C49416000218160C3
:104630000C22C160C0E9041281614FF40041C161E4
:10464000FFF712FB002803D0BDE81040FCF73FB98C
:1046500010BD00000044004058010010A068060092
:104660000C4810B50A4901604FF4E1314160002166
:1046700081600C22C160C0E904128161C161FFF751
:10468000F3FA002803D0BDE81040FCF720B910BDB4
:10469000004800409C010010FEE7FEE77047012043
:1046A00000F05DFDFBE7012000F059FDFBE7012074
:1046B00000F055FDFBE7012000F051FDFBE7012074
:1046C00000F04DFDFBE7012000F049FDFBE7012074
:1046D00000F045FDFBE7012000F041FDFBE7012074
:1046E00000F03DFDFBE710B54FF0E020006902F05F
:1046F00077F8012803D0BDE8104001F085BD10BD5A
:1047000030B593B030216846FBF704FF14210CA8A4
:10471000FBF700FF1F480025016841F08051016050
:10472000006800F0805011901B48016841F48041FE
:1047300001600068022400F480401190092000907C
:104740004FF4803001900120CDE9050480050790E9
:1047500008200890A820CDE9090407200B9068469E
:10476000FDF776FC08B172B6FEE70CA90F2081E8D0
:1047700031004FF4A0500F904FF48050109005215D
:104780000CA8FDF7D9FA002801D072B6FEE713B0E5
:1047900030BD00004038024000700040024801680F
:1047A00041F470010160704788ED00E00148FEF7B8
:1047B000D2BD0000FC080020F0B50268254C264D53
:1047C000264E274F274B4FF0804CA04209D0604522
:1047D00007D0A84205D0B04203D0B84201D09842D9
:1047E00004D122F0700E4A6842EA0E02A0421BD0A9
:1047F000604519D0A84217D0B04215D0B84213D0A6
:10480000984211D0184DA8420ED0184DA8420BD096
:10481000174DA84208D0174DA84205D0164DA84202
:1048200002D0164DA84203D122F44075CA682A432B
:104830004D6922F080022A4302608A68C2620A68D7
:104840008262A04201D0984201D10969016301212D
:104850004161F0BD0000014000040040000800403C
:10486000000C0040000401400040014000440140B1
:104870000048014000180040001C0040002000409B
:1048800010B5846842EA032224F47F440A43224399
:10489000826010BD826822F070020A4342F0070174
:1048A000816070472DE9F0470446006A0D4620F00C
:1048B00001002062206A6768A169AE6821F0730276
:1048C000296820F00200DFF880900643DFF87CA022
:1048D00041EA02084C4501D054450ED1E86830B198
:1048E000082804D041F6CB2119A000F010FCE8689C
:1048F00026F00801084320F004064C4501D0544539
:1049000019D1A869B0F5007F05D020B141F6D821B2
:104910000FA000F0FCFB6869B0F5807F05D020B1E6
:1049200041F6D9210AA000F0F2FB27F44071686932
:10493000AF69084307436760C4F81880686860631C
:104940002662BDE8F087000000000140000401403D
:104950002E2E2F447269766572732F53544D333265
:10496000463478785F48414C5F4472697665722FAF
:104970005372632F73746D3332663478785F686175
:104980006C5F74696D2E63002DE9F0470446006A80
:104990000D4620F010002062206A6768A1692A682D
:1049A00021F4E64141EA0228A968DFF8889020F066
:1049B0002000DFF884A040EA01164C4501D05445A0
:1049C0000FD1E86830B1082804D041F616311BA099
:1049D00000F09DFBE96826F0800040EA011020F01D
:1049E00040064C4501D054451BD1A869B0F5007F65
:1049F00005D020B141F6243110A000F088FB686991
:104A0000B0F5807F05D020B141F625310BA000F034
:104A10007EFB696927F4406040EA8100A96940EAA9
:104A200081076760C4F818806868A0632662BDE8E3
:104A3000F087000000000140000401402E2E2F44AA
:104A40007269766572732F53544D333246347878D9
:104A50005F48414C5F4472697665722F5372632FD1
:104A600073746D3332663478785F68616C5F746933
:104A70006D2E63002DE9F0470446006A0D4620F4D0
:104A800080702062206A6768E169DFF8949021F005
:104A90007302296820F4007041EA0208A968DFF86F
:104AA00084A040EA01264C4501D054450FD1E86866
:104AB00030B1082804D041F661311BA000F027FB7B
:104AC000E96826F4006040EA012020F480664C4545
:104AD00001D054451BD1A869B0F5007F05D020B1A5
:104AE00041F66E3110A000F012FB6869B0F5807FCE
:104AF00005D020B141F66F310BA000F008FB6969C9
:104B000027F4405040EA0110A96940EA01176760A4
:104B1000C4F81C806868E0632662BDE8F087000086
:104B200000000140000401402E2E2F44726976657A
:104B300072732F53544D3332463478785F48414C6A
:104B40005F4472697665722F5372632F73746D338D
:104B500032663478785F68616C5F74696D2E6300CB
:104B60002DE9F0410446006A0D4620F48050206291
:104B7000206A6668E1692A6821F4E64141EA022870
:104B8000A96820F4005040EA01370E48844202D060
:104B90000D4884420ED16869B0F5807F05D020B100
:104BA00041F6AD3109A000F0B2FA696926F48040FF
:104BB00040EA81166660C4F81C8068682064276239
:104BC000BDE8F08100000140000401402E2E2F447A
:104BD0007269766572732F53544D33324634787848
:104BE0005F48414C5F4472697665722F5372632F40
:104BF00073746D3332663478785F68616C5F7469A2
:104C00006D2E630010B5036A046A24F00104046287
:104C1000846924F0F00444EA021423F00A020A43EF
:104C20008461026210BD10B5036A23F010030362B1
:104C30008369046A23F4704343EA023224F0A00338
:104C400043EA01118261016210BD10B500F0E6FF78
:104C5000002805D0D0E90021BDE8104008461047E3
:104C600010BD00000148FEF7CBBE0000140100108B
:104C700010B5806B0021C185C184FEF7BFFE10BD59
:104C800070B5846B2068406994F83D10C0F3C01083
:104C90000025212904D118B1E584204600F08AF8C6
:104CA0002068406994F83E10C0F38010222904D196
:104CB00018B1E585204600F056F8206C40F0100051
:104CC00020642046FEF79AFE70BD10B50146806B49
:104CD00009680968C9052FD40021C18501680C3114
:104CE00051E8002F22F4807241E80023002BF5D117
:104CF0000168143151E8002F22F0010241E800233D
:104D0000002BF5D10168143151E8002F22F0400248
:104D100041E80023002BF5D1202180F83E10016BE3
:104D2000012909D101680C3151E8002F22F010024D
:104D300041E80023002BF5D1016B012902D0FFF7D8
:104D40000DF910BD818DFEF735FE10BD10B5806BDD
:104D5000016B012902D0FFF702F910BD818D4908CE
:104D6000FEF728FE10BD01680C3151E8002F22F437
:104D7000907241E80023002BF5D10168143151E80D
:104D8000002F22F0010241E80023002BF5D1016B36
:104D9000012909D101680C3151E8002F22F01002DD
:104DA00041E80023002BF5D1202180F83E1000219E
:104DB0000163704701680C3151E8002F22F0C002F6
:104DC00041E80023002BF5D1202180F83D107047E9
:104DD00008B590F83E10222901D0022008BD826853
:104DE0004FF480539A4201D1016921B1816A9A42FC
:104DF0001BD04AB10AE00268816A5268C2F3080215
:104E00000A80816A891C08E0026972B102685268EE
:104E100002F07F020A70816A491C8162C18D491EBD
:104E20000904090CC18503D019E002685268F1E752
:104E30000168CA6822F02002CA600168CA6822F4C8
:104E40008072CA6001684A6922F001024A61202129
:104E500080F83E10016B012903D0FFF77FF8002096
:104E600008BD0021016301680C3151E8002F22F0D8
:104E7000100241E80023002BF5D101680A68D20630
:104E800002D50A6849680091818DFEF793FDE6E737
:104E900070B5044640685449884204D940F65661CA
:104EA00052A000F034F9E06838B1B0F5005F04D0EA
:104EB00040F657614DA000F02AF9206950B1B0F5D5
:104EC000806F07D0B0F5C06F04D040F6586147A09E
:104ED00000F01DF960694FF6F371084200D120B966
:104EE00040F6596141A000F012F920680169E268BA
:104EF00021F44051114301612169A068E26908432E
:104F00006169114322680843D16849F20C639943EF
:104F10000143D16020684169A26921F440711143C5
:104F2000416141492068884202D04049884202D10B
:104F3000FDF758F801E0FDF745F8E2690023192173
:104F400064253226B2F5004F626828D0A0FB01012B
:104F5000930F9200FBF7E8F90146B0FBF5F06FF014
:104F60001802504301EB800006EB0010B0FBF5F097
:104F700000F0F002B1FBF5F002EB0012B1FBF5F02E
:104F80006FF01803584301EB800006EB0010B0FBF4
:104F9000F5F000F00F0021681044886070BDA0FBA0
:104FA000010192185B41FBF7BFF90146B0FBF5F038
:104FB0000201B1FBF5F06FF01803584301EB8000DC
:104FC00006EBC000B0FBF5F000F0F80002EB400289
:104FD000B1FBF5F0584301EB800006EBC000B0FBDD
:104FE000F5F000F00700D6E7A037A0002E2E2F44E2
:104FF0007269766572732F53544D33324634787824
:105000005F48414C5F4472697665722F5372632F1B
:1050100073746D3332663478785F68616C5F756184
:1050200072742E6300000000001001400014014063
:1050300038B5816282850025134604460564222026
:1050400084F83E00A26B1B48D063A26B1A48106420
:10505000A26B1A48D064A06B0A4605652168A06B54
:10506000091DFCF71FF9206801684068009084F86A
:105070003C5020680C3050E8001F41F4807140E83B
:105080000012002AF5D12068143050E8001F41F0CA
:10509000010140E80012002AF5D12068143050E8E0
:1050A000001F41F0400140E80012002AF5D1002025
:1050B00038BD0000CB4C00084D4D0008814C000865
:1050C00002480121017000787047000004000010C0
:1050D00001207047002070470248012101700078CC
:1050E000704700000400001000207047FEE7090729
:1050F000090E002804DB00F1E02080F8001470475E
:1051000000F00F0000F1E02080F8141D7047704798
:10511000FCF7E0FCFFF7F4FAFFF75CF8FEF722FF7C
:10512000FFF72CF9FEF75EFFFFF7AAF9FFF706F984
:10513000FFF73AF9FFF75CF9FFF77EF9FFF71CFA82
:10514000FFF752FAFFF78CFAFEF7B2FFFFF768FAA3
:1051500000F028F8FEF7BAFF00F036F8FEE710B5C9
:10516000EFF3058111B16FF0050403E0002408B1ED
:1051700000F0B2FE204610BD10B54FF00001EFF375
:1051800005826AB948B1D0E902202AB1202807D3A4
:10519000104600F0A9FF02E010B900F097FF0146A9
:1051A000084610BDEFF3058010B16FF005007047A1
:1051B0000448016811B14FF0FF30704701210160D0
:1051C000002070474800002010B5EFF3058010B1B3
:1051D0006FF0050010BD08480168012902D04FF0AA
:1051E000FF3010BD054A002182F8141D0221016024
:1051F00000F0DAFE002010BD480000200BE000E0C7
:10520000F8B514464FF00005EFF3058212BB08B362
:1052100001B3A4B1D4E9023263B1502A1AD322698E
:10522000C2B1676900FB01F6B74213D3009501F0E4
:1052300022F807E072B9226962B9626952B90022A4
:1052400000F0F8FF050005D00CB1216800E0002156
:1052500000F00CFE2846F8BD2DE9FF414FEA01039E
:105260004FF00005EFF30581039549BB40B380275C
:10527000182100244AB3166806B1344696691EB157
:105280003146761E382E02D21679F60703D000205A
:1052900004B0BDE8F081566906B1B708D2F808C07D
:1052A000BCF1000F0DD0D5685C2D18D312693AB14E
:1052B00036B18DE806103A46214601F066FA0390B1
:1052C0000DE0D6685EB912694AB903AACDE90012A9
:1052D000BAB2214601F02CFA012800D003950398B8
:1052E000D6E700002DE9FC471C4690468946074654
:1052F0004FF00006EFF3058058BB57B3082000F0CD
:105300001FFC050025D0C5E90078B9F1000F12D0C7
:105310000122114B002094B1216801B10846A16817
:1053200059B1E4682C2C11D3CDE900312B46012171
:1053300001F0C2FB08E00022EBE7E16831B900931D
:105340002B46012101F09EFB060002D1284600F009
:105350001FFD3046BDE8FC874B4C00082DE9F041AD
:10536000134C0F460546E6682068001D00F07EFCE1
:10537000681C07D137B12168BDE8F0410D48091D0F
:1053800000F0C5BC20683544B5424560216805D2AF
:10539000A06BBDE8F041091D00F0A1BC606B091DC8
:1053A00000F09DFCA06A854200D2A562BDE8F081B4
:1053B00028000010F40D00202DE9F041054600F012
:1053C000B3FC2D4CA068401CA06020682B4F10B18E
:1053D000606930B32BE02560A068012827D1002642
:1053E00006EB860007EB800000F06BFC761C382E85
:1053F000F6D3234800F065FC2148143000F061FC2E
:105400001F48283000F05DFC1D483C3000F059FC7E
:105410001B48503000F055FC194860631430A063FD
:1054200005E02068E96AC06A884200D82560606AA1
:10543000401C60626864E86A2169884200D9206182
:1054400000EB800007EB8000291D00F060FC00F0FD
:105450008BFC606900280CD02068E96AC06A884229
:1054600007D208494FF080500860BFF34F8FBFF359
:105470006F8FBDE8F0810000280000104409002073
:10548000A40D002004ED00E038B500F04DFC104CF8
:105490002068C8B90F4800F014FC0E48143000F022
:1054A00010FC0C48E060143020610A4B0020F03BF7
:1054B000009003F1500210210A2000F0DCFE206071
:1054C00010B105A100F0D2FCBDE8384000F04CBCA2
:1054D000640000103C040010546D72510000000084
:1054E00030B4026C0B46002A0BD0C1681144C16075
:1054F0008468A14201D30168C16030BC1846FAF744
:105500008ABF30BC70472DE9F041856B17460446D1
:105510000026026C82B1C7B1E068FAF77CFFE1684F
:10552000206C091AE1602268914202D2A168081A2F
:10553000E060022F16D017E02068A8B9A06801F03B
:10554000C7F906460020A0600EE06068FAF763FF26
:10555000216C606808446060A168884204D32068B8
:10556000606001E005B16D1E6D1CA5633046BDE8AD
:10557000F08110B5044690F8590058B101280CD0BC
:1055800002280FD0502080F31188BFF34F8FBFF354
:105590006F8FFEE7206B00F0FBFB2046BDE810405C
:1055A00000F0F6BB10BD000010484FF44041420728
:1055B00006D0C01D0D4920F00700411AC1F5404139
:1055C0000B4A00230144C2E900030839183A21F0CC
:1055D000070111604B600B600B1AC0E90013936068
:1055E0004FF000405360506170470000C01400202D
:1055F00064000020144E154CA6F29C474FF08058D2
:10560000DFF84C9012E000BF00F08EFBF068C56838
:10561000281D00F02BFBA068401EA0606068401EA3
:10562000606000F0A1FB2846FFF7A3FF6068002838
:10563000EAD138680128F9D9C9F80080BFF34F8F43
:10564000BFF36F8FF2E70000E00D0020280000108C
:1056500004ED00E070B51D46049C51B1C4F8002073
:10566000C4E90F010121204600F038FE84F84C50B7
:1056700070BD2460F4E700002DE9F05F8846DDE9A5
:105680000B941546834691009A460A9EA522206BEC
:10569000FAF738FF6FF00301206B01EB8501084436
:1056A00020F00707780707D0502080F31188BFF358
:1056B0004F8FBFF36F8FFEE70025B8F1000F0FD0BB
:1056C0005FF00000221818F8001082F8341018F863
:1056D000001011B1401C1028F4D384F8435001E0AD
:1056E00084F83450382E00D33726E662C4E91365B7
:1056F000201D00F0F1FA04F1180000F0EDFA246129
:10570000C6F138006462A061656584F8585052465D
:105710005946384600F094FA2060B9F1000F01D0E4
:10572000C9F80040BDE8F09F2DE9F0471E46DDE9CD
:10573000089417460D00804615D0002C11D0FFF7B5
:10574000A3FE04F11801C4F8008081E86002201D66
:1057500000F0C2FA002F04D014F8280F40F0040023
:105760002070BDE8F087502080F31188BFF34F8F81
:10577000BFF36F8FFEE7000030B5114900E011461E
:105780000A688242FBD34B685C18844203D14068AC
:1057900018444860084643681C18944209D1084CD4
:1057A000183C2468A24209D052681A4442600A6830
:1057B00012680260814200D0086030BD0460F9E7E1
:1057C0006400002070B5002441600B4D00619142DF
:1057D00006D8D11A8269914206D2011D286907E0D4
:1057E0009A4203D2994201D3012403E0011DE868E3
:1057F00000F075FA204670BD6400001010B5044634
:1058000000F092FAA06B28B15FF0000400F0ACFA4F
:10581000204610BD0124F9E730B589B03C4D6EE05B
:105820000498002806DADDE90601059A90470498F5
:10583000002864DB069C606910B1201D00F016FA98
:1058400003A800F0D7F8024604980A2857D2DFE8E8
:1058500000F00505052D334A05052D3394F8280081
:1058600040F0010084F828000599A069059B0144D7
:105870002046FFF7A7FF68B3216A2046884794F8BF
:10588000280040073BD5002000900598A16900231F
:1058900042181946204601F057F9D8B9502080F334
:1058A0001188BFF34F8FBFF36F8FFEE714F8280FF7
:1058B00020F00100207022E094F8280040F0010060
:1058C00084F828000598A06128B181181346204665
:1058D000FFF778FF13E0502080F31188BFF34F8F5C
:1058E000BFF36F8FFEE794F82800810703D42046AA
:1058F00000F04EFA03E020F0010084F828000022B6
:1059000004A9286800F03EFE002889D109B030BD06
:10591000640000102DE9FC410F46054600F088FBAD
:1059200001A800F067F80446019818B101F048F8A2
:10593000BDE8FC81254EAFB130690068D0B30027C7
:10594000291B3A46306800F0A5FA01F039F8002822
:10595000EED11F494FF080500860BFF34F8FBFF367
:105960006F8FE5E7A542EBD801F02AF8F0682746EB
:10597000C068C468201D00F079F994F82800410738
:1059800019D5A0692B4641193A462046FFF71AFF60
:10599000A8B100200346014600902A46204601F0A7
:1059A000D3F860B9502080F31188BFF34F8FBFF355
:1059B0006F8FFEE707E020F0010084F82800216ADD
:1059C00020468847B4E70127BAE7000064000010CA
:1059D00004ED00E00648416B096829B1416BC968D4
:1059E000C9684968816270474FF0FF31FAE70000EB
:1059F0002800001070B5054600F000FF064E044672
:105A0000B068844203D200F009F8012000E00020D1
:105A100028602046B46070BD64000010F8B5194DD0
:105A200020E0C068C4680668201D00F01FF9216AE4
:105A30002046884794F82800400713D5A0693044D1
:105A4000B04206D924616060211DE86800F047F982
:105A500008E000200346014600903246204601F04F
:105A600073F838B1E86801680029DAD12969C5E915
:105A70000310F8BD502080F31188BFF34F8FBFF3A0
:105A80006F8FFEE76400001008484068401C4FF02C
:105A9000500080F3118804D0BFF34F8FBFF36F8F96
:105AA000FEE7BFF34F8FBFF36F8FFEE76C00002060
:105AB000074CE068016841B1C0680021D0F80000DF
:105AC000FFF728FFFFF7A8FEF3E701210020F7E723
:105AD000640000102DE9F041044600F025F994F926
