:020000040800F2
:10000000F80401200D030008F3770008FD680008DC
:10001000F1770008C12600087D8400080000000078
:100020000000000000000000000000004D02000879
:100030003529000800000000A9020008FF79000827
:1000400027030008270300082703000827030008E8
:1000500027030008270300082703000827030008D8
:100060002703000827030008652A000881270008E5
:10007000270300088D27000899270008A5270008F6
:10008000B1270008BD270008270300082703000840
:100090002703000827030008270300082703000898
:1000A0002703000827030008270300082703000888
:1000B0002703000827030008270300082703000878
:1000C0002703000827030008270300082703000868
:1000D0002703000827030008270300082703000858
:1000E0005D2A0008270300082703000827030008EB
:1000F000270300082703000827030008C927000872
:100100002703000827030008270300082703000827
:100110007D7F000827030008C57A00082703000830
:10012000D52700082703000827030008E127000857
:10013000270300080000000000000000270300085B
:1001400027030008270300082703000827030008E7
:10015000ED270008270300082703000827030008ED
:1001600027030008270300082703000827030008C7
:10017000270300082703000800000000000000001B
:10018000270300082703000800F002F800F04FF8EA
:100190000AA090E8000C82448344AAF10107DA45E2
:1001A00001D100F044F8AFF2090EBAE80F0013F0E5
:1001B000010F18BFFB1A43F00103184770B100008C
:1001C000B0B10000103A24BF78C878C1FAD85207FD
:1001D00024BF30C830C144BF04680C6070470000C1
:1001E0000023002400250026103A28BF78C1FBD840
:1001F000520728BF30C148BF0B60704766290AF01C
:100200001B86002070471FB50AF009FE00F01AFE99
:100210000400002000210AF089FB401C60600020DF
:1002200000210AF06DFBE0601FBD10B510BD00F0AD
:100230007DFF1146FFF7E7FF08F0CCFA01F026FA40
:1002400003B4FFF7F2FF03BC01F06AFA2C4B196804
:100250000868B0E8F04F80F30988BFF36F8F4FF064
:10026000000080F311887047000000000848006813
:10027000006880F308884FF0000080F3148862B6AD
:1002800061B6BFF34F8FBFF36F8F00DF00BF00BFBA
:1002900008ED00E0DFF80C00016841F47001016036
:1002A000704700BF88ED00E0EFF30980BFF36F8F68
:1002B000134B1A681EF0100F08BF20ED108A20E9BA
:1002C000F04F106009B44FF0500080F31188BFF375
:1002D0004F8FBFF36F8F09F027FC4FF0000080F3C2
:1002E000118809BC19680868B0E8F04F1EF0100FBB
:1002F00008BFB0EC108A80F30988BFF36F8F704796
:1003000054000010EFF30580704700000948804753
:1003100009480047FEE7FEE7FEE7FEE7FEE7FEE7E7
:10032000FEE7FEE7FEE7FEE704480549054A064BFF
:1003300070470000B57A000889010008F8D4002051
:10034000F8040120F8E40020F8E4002053EA020C4D
:1003500000F069802DE9F04B4FF00006002B1FBF25
:10036000B3FA83F503FA05F424FA05F65E4012BFEA
:100370001643B2FA82F502FA05F4C5F120051EBF54
:1003800022FA05FC44EA0C04203556EA044C4FEAF4
:10039000144418BF641C4FF000084FF0000990424D
:1003A00071EB030C39D3002919BFB1FA81F701FAB7
:1003B00007F6B0FA80F700FA07F6C7F120071EBF6C
:1003C00020FA07FC46EA0C062037B6FBF4FCA7EB44
:1003D0000507103F07F01F0BCBF120060CFA0BFBB3
:1003E0002CFA06F644BFB3460026202FA4BF5E4673
:1003F0004FF0000B5BEA060C08BF4FF0010B19EB46
:100400000B09ABFB027C48EB0608C01B06FB02CCC9
:100410000BFB03CC71EB0C01C1E70B4602464146D6
:100420004846BDE8F08B13B54FF000004FF00001D7
:10043000AFF30080BDE81C40704710B54C1084EA53
:10044000530404D54042C1F1000138BF491E1B428C
:1004500004D55242C3F1000338BF5B1EFFF776FF9D
:1004600014F0804F04D04042C1F1000138BF491E52
:1004700014F0004F04D05242C3F1000338BF5B1E9A
:1004800010BD00000FB47CB50C0009AA009001D08B
:100490002044401E084B7B4469460190089800F0B8
:1004A000F8FB05461CB10020694600F005FC284613
:1004B0007CBC5DF814FB0000290800002DE9F04722
:1004C0004FF0000A89460446C0F820A02046E168A3
:1004D0008847002876D0252806D0D4E90121904706
:1004E000206A401C2062F1E7E16820460025884729
:1004F000C4F81CA006460027C4F818A02A2E09D06C
:10050000304608F018F938B304EB8708303EC8F8D5
:10051000186019E059F8041B204604EB870291612A
:10052000E1688847012F064618D1E069002820DAE3
:1005300025F020051DE0D8F8180000EB800006EB40
:1005400040003038C8F818002046E1688847064661
:1005500008F0F1F80028EED1012F0AD02E2E08D194
:100560002046E16888477F1C0646022F45F020059B
:10057000C4DBA069002803DA404245F00105A06110
:10058000E80701D025F01005B6B1A6F14100192801
:1005900002D8203645F400654A463146204625609B
:1005A0004D46FFF72BFE58B1012806D0ED1D25F072
:1005B000070000F1080989E704E005F1040985E76F
:1005C00030468AE7206ABDE8F08770B5064600F03D
:1005D0003DF90468054630460A22002100F0CCFBB4
:1005E0002C6070BD401ECAB210F8011F8A4202D0B2
:1005F0000029F9D100207047CBB22AB101788B4293
:1006000003D0401C521EF9D10020704740EA01037C
:1006100070B59B072ED14FF00136042A2AD308C8A3
:1006200010C99D1B9D43121F15EAC61517D0D8B2DD
:10063000E1B2401A50EA056110D198B2A1B2401A55
:1006400050EA05410AD123F07F4024F07F41401A4F
:1006500050EA052102D1180EA0EB146070BDA34230
:10066000DBD018BA21BA884201D9012070BD4FF001
:10067000FF3070BD0AB9002070BD10F8013B11F8C1
:10068000014B63B1A3420AD1521E08D010F8013BBE
:1006900011F8014B1BB1A34201D1521EEDD1181B21
:1006A00070BD032A40F2308010F0030C00F015807A
:1006B00011F8013BBCF1020F624498BF11F801CB65
:1006C00000F8013B38BF11F8013BA2F1040298BFCA
:1006D00000F801CB38BF00F8013B11F0030300F034
:1006E0002580083AC0F0088051F8043B083A51F8D8
:1006F00004CBA0E80810F5E7121D5CBF51F8043BDD
:1007000040F8043BAFF30080D20724BF11F8013B4F
:1007100011F801CB48BF11F8012B24BF00F8013BB1
:1007200000F801CB48BF00F8012B704710B5203A04
:10073000C0F00B80B1E81850203AA0E81850B1E89A
:100740001850A0E81850BFF4F5AF5FEA027C24BF50
:10075000B1E81850A0E8185044BF18C918C0BDE847
:1007600010405FEA827C24BF51F8043B40F8043B10
:1007700008BF7047D20728BF31F8023B48BF11F8C5
:10078000012B28BF20F8023B48BF00F8012B70471F
:1007900002F0FF0343EA032242EA024200F026BBD2
:1007A0004FF0000200B5134694469646203922BF0A
:1007B000A0E80C50A0E80C50B1F12001BFF4F7AF55
:1007C000090728BFA0E80C5048BF0CC05DF804EB37
:1007D000890028BF40F8042B08BF704748BF20F8A5
:1007E000022B11F0804F18BF00F8012B704710B595
:1007F000044610F0030F08BF11F0030F40F01580FE
:100800004FF0013E121FC0F20E8051F8043BA3EBE3
:100810000E0C2CEA030C1CEACE1C08BF40F8043B6B
:10082000F0D0A1F1040102F10402521E08DB11F81C
:10083000013B002B00F8013BF7D1114600F0D4FA40
:10084000204610BD70477047704700000048704751
:100850009404001010B5FFF7F9FF006810BD10B543
:100860000446FFF7F3FF046010BD70472DE9FF4F0A
:100870000C461E464FF0FF378BB0D2E90001DDF881
:1008800060800A908A46C1F30A5505B93D460021A9
:1008900008464FF00000BAF1000F00F4400005DAFE
:1008A00000EB80004FF4400101EA50004FEA9059FC
:1008B000B9F1010F00DDB9460A9850EA4A000ED09E
:1008C00044F61050A5F2FF3545432F14B8F1000F40
:1008D0001ED07542291E1EDDC9F100021CE0B8F1D0
:1008E000010F4FF0000001D0302103E0F24305E09A
:1008F0002154401CB042FBDB304600220021215431
:100900000B99C1F80880C1E900200FB0BDE8F08F55
:10091000BD1B6D1CDEE74A4600DA694206A800F0FE
:1009200093FB06AB93E8070003AB83E80700504650
:100930000A9901F039F98DE80700A0F500501F3839
:1009400000900398002D0ADD42F21F014A46084438
:10095000002303A90390684601F0E4FB09E0A0F539
:1009600000504A461F38002303A90390684601F04F
:1009700003FC8DE807000004000C03D04FF0FF30AB
:10098000410800E01046B8F1000F03D000220092A9
:1009900015461EE0751E05D400F058FA3032625537
:1009A0006D1EF9D5B3460122084302D000227F1CF8
:1009B00004E02078302801D100227F1E002A099708
:1009C00084D01DE0112D07DA00F040FA3032625574
:1009D0006D1C50EA0102F5D1084302D00098C8B15D
:1009E0000EE00021681E05E0235C625C6354225423
:1009F000401E491C8142F7DBAB46A81B401E0990F4
:100A0000002004F80B000B98099AC0F80880C0E990
:100A1000002B7AE711264FF0000857E72DE9F04F39
:100A200088460446D21D22F0070191B0D1E90001A9
:100A3000CDE90A0107F023FD02460B98C00F01D053
:100A40002D2007E02068810701D52B2002E020211E
:100A500001EAC000032A099001D0072A05DB0346FA
:100A60004146204600F040FA0BE12078800601D58F
:100A7000E06900E00620B8F1650F814606D0B8F1C4
:100A8000660F18D0B8F1670F70D131E00020B9F1CE
:100A9000110F009001DB112301E009F101030AAA03
:100AA00001A90CA8FFF7E2FEDDE90C70002609F1B0
:100AB0000105834647E001204B4600904FF0004778
:100AC0000AAA01A90CA8FFF7D1FEDDE90DB00C9927
:100AD0005D46002610B909F101000D18B9EB0500BB
:100AE00003D4C0F1FF3609F10105A5EB09002BE0A5
:100AF000B9F1010F01DA4FF001090020B9F1110F2E
:100B00000090484601DD112300E003460AAA01A92E
:100B10000CA8FFF7ABFEDDE90C704D4600268346BE
:100B2000207800070AD4AB4500DA5D4601A8012D04
:100B300004DD411911F8011C302907D04F4502DAB4
:100B400017F1040F04DA012082460FE06D1EEEE774
:100B5000002F02DCED1B3E4403E0781CA84200DDC0
:100B60007D1CB81B00F1010A4FF0004720780007F8
:100B700003D4AA4501DB4FF0FF3A0021B7F1004F43
:100B80000DF143088DF8431024D002202B23002FB1
:100B900001DA7F422D230A21021EA0F1010000DCB0
:100BA0005FB197FBF1FC97FBF1F201FB1C7C174650
:100BB0000CF1300C08F801CDEEE7A8F1010003704C
:100BC0002188090501D5452100E06521A0F1010832
:100BD00000F8011C09980FA9A1EB0807FF1D00B13F
:100BE0000120411901EBEA70A1693844081A401E3E
:100BF000A0612078C00602D42046AFF30080099897
:100C000028B1D4E901219047206A401C2062207855
:100C1000C00622D52046AFF300801EE0002E04DB84
:100C2000B34502DD01A8805D00E03020D4E9012158
:100C30009047206A401C2062761CAAF101005FEAFE
:100C4000000A0AD100F0FEF8C0680168405CD4E9EF
:100C500001219047206A401C2062281EA5F1010551
:100C6000DCDC07E0D4E9012118F8010B9047206A89
:100C7000401C2062381EA7F10107F3DC2046AFF3C9
:100C80000080032011B041E601694A1C0261087826
:100C9000704700B58FB0CDE90131002105910549BC
:100CA0007944CDE9031011466846FFF707FC0FB001
:100CB00000BD0000E5FFFFFF0A6802F8010B0A60B3
:100CC0007047D1E900239A4202D2531C0B60107086
:100CD000704700000FB4002300B589B00CA9009143
:100CE0000B99CB60214B7B440693214B7B440793AC
:100CF00004236FF00042CDE901321E4A7A446B466C
:100D00000892024600200AF0F9F809B05DF814FBD9
:100D100070B506464FF0FF3015460C46324686B099
:100D20000091CDE9010169460020049004A8FFF775
:100D3000D1FF02460498211825B108B1084600E009
:100D400020462860049800280DD0002A02DD009873
:100D5000884208D03246081B69460094CDE9010458
:100D600004A8FFF7B7FF06B070BD00007F020000C7
:100D700097020000D70100002DE9F04791460F4689
:100D800080460446002614F8015B2DB100F052F8AD
:100D90000068405DC007F6D12B2D02D02D2D18D054
:100DA000641E4A463946204600F0FEF827B13968ED
:100DB000A14201D1C7F800804FF0020471050BD5A4
:100DC0004042002803DDFFF741FD0460A007BDE8B5
:100DD000F08746F48066E4E70028F8DAFFF736FD8E
:100DE00004606FF00040F2E74FF000020429C0F009
:100DF000128010F0030C3FF4D5ACCCF1040CBCF124
:100E0000020F18BF00F8012BA8BF20F8022BA1EB9E
:100E10000C01FFF7C7BC5FEAC17C24BF00F8012BBF
:100E200000F8012B48BF00F8012B704700487047BD
:100E30009404001010B500F005F8001D10BD00BFAF
:100E4000ED9A000000487047B404001030B5B0F1CE
:100E50000A024FEA900E71F100034EEA817EB0EB78
:100E60000E0061EB91014FEA101E4EEA017E10EB7D
:100E70000E0041EB11114FEA102E4EEA016E10EBFD
:100E80000E0041EB11214FEA104E4EEA014E10EBDD
:100E90000E0041EB1141401841F100014FEAD00032
:100EA00040EA41704FEAD10110EB80054FEA81041E
:100EB00044EA907444EB01046D1944EB0404521BA2
:100EC000A3414FF0000348BF0A3200D530BD401C9B
:100ED00041F1000130BD10B50446FFF7ABFF0068DB
:100EE000005D00F0010010BD2DE9F0411F460446F1
:100EF00003260168072A01F4006004DB08B116A587
:100F000005E016A503E008B115A500E015A521F040
:100F100010002060A069C01EA0610FB1401EA0613A
:100F20002046AFF300804FB1D4E901213846904705
:100F3000206A401C2062C01C206206E0206AFAE79A
:100F4000D4E9012115F8010B9047761EF8D220460E
:100F5000AFF30080BDE8F0814E414E006E616E003F
:100F6000494E4600696E6600426842B1016811F858
:100F7000013B23B1521EC0E90012184670470121FF
:100F8000C160881E704742685AB1C368016843B99E
:100F900083688B4205D0491E521CC0E90012002014
:100FA00070474FF0FF3070472DE9F05F82461546DD
:100FB0008B4600270AF10104B9460078302801D099
:100FC0009DB113E014F8010B0127782803D05828AD
:100FD00001D045B10AE00DB1102D07D1002714F85A
:100FE000010B102502E0082500E00A250026B04686
:100FF0000EE005FB080005FB06F101271FFA80F84B
:1010000001EB1046B6F5803F00D3B94614F8010B4A
:10101000294600F0B0F80028EBDABBF1000F05D04C
:101020000FB1641E00E05446CBF80040B9F1000F48
:1010300006D0FFF70BFC02210160C81EBDE8F09F3F
:1010400048EA0640FAE700002DE9F04781461646D7
:101050008AB0354878440DC88DE80D003248784490
:10106000801C03AC0DC884E80D0041F69B30084499
:10107000372190FBF1F290FBF1F5A5F1800501FB22
:1010800012041B3C02D56442012000E00020DFF87E
:1010900098A080460027FA44AAF1BE0A0EE0E007B5
:1010A0000AD03246684607EB470101230AEB81016B
:1010B00001F062F88DE8070064107F1C002CEED16F
:1010C000194F7F44AE3F19E0E80715D007EB041035
:1010D0000DF1180A90E80E008AE80E00C068F04290
:1010E00001D1981908903246012306A903A801F0FE
:1010F00043F803AB83E807006D10641C002DE3D1B7
:101100004FF0010332466946B8F1000F03A802D040
:1011100001F008F801E001F02FF8C9E90001C9F871
:1011200008200AB0BDE8F08798A100007546FFF7D7
:101130007DFEAE4605006946534620F00700854611
:1011400018B020B5FFF7F0F8BDE820404FF00006DA
:101150004FF000074FF000084FF0000B21F007019F
:10116000AC46ACE8C009ACE8C009ACE8C009ACE8E2
:10117000C0098D4670473A2800D2303820F020024E
:10118000412A01D3A2F13700884201D34FF0FF304A
:10119000704700002DE9FF4F06468BB00878FF2806
:1011A00006D0491C2D2805D000244FF0000908E086
:1011B00000200CE00124F8E709EB8903491C00EB4F
:1011C00043090878FF28F7D114B1C9F1000081461E
:1011D000107800252C46AA4629462D2801D02B2818
:1011E00004D1521C2D2813D0002082468B46107843
:1011F000FF280FD04FF0000C0A21521CA5FB0178EC
:1012000004FB018105FB0C11C5194BEB0104EEE752
:101210000120EAE7002108464FF00000BAF1000F74
:1012200002D000EB80004008C0F38157012F01DDA0
:101230004FF0FF370E9955EA040009EB01080BD077
:101240004FF0020918F5FA7F16DA4FEACA70002F3C
:10125000706008DD012007E04FEACA70C6E900B0FF
:101260000FB0BDE8F08F00203060FFF7EFFAC0F854
:1012700000901821084616E0B8F5FA7F18DD002F17
:1012800002DAF748784401E0F6487844D0E90010E3
:10129000C6E9001040EACA707060FFF7D7FAC0F8DC
:1012A0000090142108460FB0BDE8F04F09F0C1BD11
:1012B000002108464FF00000B8F10001099002DA61
:1012C000C7F1000200E03A4601DAC8F1000106A8C1
:1012D000FFF7BAFE06AB93E8070003AB83E807000D
:1012E00044F23E005BEA04010090584604D144F207
:1012F0001E012C465D460091210C0904014306D1D4
:101300000099240444EA15442D041039009104F096
:101310007F41014306D10099240244EA15642D025D
:101320000839009104F07041014306D1009924016D
:1013300044EA15742D01091F009104F04041014356
:1013400006D10099A40044EA9574AD00891E00916D
:1013500004F00041084304D100986D196441401E17
:1013600000904FF001033A466846B8F1000FCDE90E
:10137000014503A902DD00F014FF01E000F0E7FEE3
:10138000BAF1000F04460D4601D084F0004400215C
:1013900008464FF00000099940F2FF77484010F0EE
:1013A0000C0F07D124F00040284303D0C4F30A50A7
:1013B000B84212D1FFF74AFAC0F80090C4F30A50BD
:1013C000B8420AD1A8487844D0E90010C6E9001014
:1013D00004F000410843706042E7C6E900543FE76B
:1013E0002DE9FF4F1F464FF0000A4FF0FF384546EA
:1013F00091B0D7E90146CDF83CA0FFF723FDC068C6
:101400000168405C1090B96912986D1C8847396A70
:10141000814688470028F6D1B9F1FF3F0AD0002E57
:1014200024F4D06411DDB9F12B0F08D0B9F12D0FE0
:101430000BD102E0404615B013E744F48064B9696B
:1014400012986D1C8847761E8146600504A901D557
:101450002D2000E02B20002E01F1010B0DF13008B2
:101460008DF810003FDDB9F1690F08D0B9F1490FCF
:1014700005D0B9F16E0F02D0B9F14E0F1CD13B4629
:1014800001A8009580E85002DDE912126FF0020019
:1014900009F038FDC11CCED10EE0B96912986D1C5F
:1014A000884781461398761E44F4007405600F98AF
:1014B000401C002E0F9016DDB9F1300FEDD0B9F1C0
:1014C000780F02D0B9F1580F0DD10F9801280AD129
:1014D0003B46CDE90054DDE91212001F029609F0E7
:1014E0000FFDC11CA7D1109989453ED144F080045D
:1014F00006E01399681CAAF1010A44F4007408601C
:10150000B9696D1C1298761E884730288146F0D044
:101510002BE01099894505D1200603D4761E44F0AE
:10152000800418E0484607F006F908B3761E0DF16E
:1015300023018B4544F4007408D2A9F130000BF864
:10154000010B200607D5AAF1010003E0200602D412
:101550000AF101008246A00502D51399681C0860B3
:10156000B96912986D1C88478146002ED1DC53E082
:10157000002E51DDB9F1650F02D0B9F1450F4BD105
:10158000A00549D5B9696D1C1298761E24F44074E3
:101590008847002E81460CDD2B2804D0B9F12D0F91
:1015A00007D144F48074B96912986D1C8847761E7F
:1015B0008146E00501D52D2100E02B2108F8011B13
:1015C000CDF8008021E0761E0DF13901884544F404
:1015D00000740CD2A9F1300010F0FF0088F8000070
:1015E00002D10099884509D908F1010806E0E00513
:1015F00001D51E4801E042F20F708246B969129887
:101600006D1C8847814613980560002E04DD48460E
:1016100007F091F80028D6D1F96912988847FF2081
:1016200053468BF8000088F8000000200A900B90C9
:1016300004AA0CA90AA8FFF7ADFDA00502D46FF01B
:101640000100F8E614F0240F12D0E0071CD138682E
:10165000DDE90A12031D3B600068C0E9001213E0D7
:10166000ECA00000DEA00000A29F0000F1D8FFFF68
:101670000AA9684607F04CF8E00705D13868009AD7
:10168000011D3960006802602846D4E610B50446A2
:10169000AFF300802046BDE81040FEF7D1BD00004A
:1016A0004FF0013C50F8042B51F8043B9A4221D1F1
:1016B000A2EB0C03934313EACC1317D150F8042B7D
:1016C00051F8043B9A4215D1A2EB0C03934313EA61
:1016D000CC130BD150F8042B51F8043B9A4209D19A
:1016E000A2EB0C03934313EACC13DBD04FF00000C2
:1016F000704700BFD01A01BAB1FA81F101F01801A8
:1017000022FA01F0CB40C1F12001DBB2C0B2C01A15
:101710002CFA01F3D11A914311EAC311E6D17047B3
:1017200001491820ABBEFEE7260002002DE9FF4F5D
:101730001F464FF03C0987B04FF00042DDE914101E
:1017400001F10108DDF858A002EA405003900020A2
:1017500005908346054604460490B969461E0898DC
:101760008847AAF1010A0290BAF1000F3BDD029806
:101770002E2815D01021FFF7FEFC00282EDB4FF09D
:10178000010B0599014317D0B9F1000F0BDB4A4655
:10179000C11700F0F6F905430C43A9F1040905E06F
:1017A000012004900BE008B145F0010501200590EF
:1017B000049820B9361D02E0049800B1361FB969BB
:1017C000089808F101088847BBF1000FAAF1010A47
:1017D0000290C9D00999C1F80080C5E70298702825
:1017E00008D0502806D0F96908988847BBF1000F47
:1017F00014D04FE0002002900120BBF1000F0490B4
:1018000009D0B969089808F101088847AAF10109C7
:10181000B9F1000F07DCF969089888476FF00100FB
:101820000BB0BDE8F08F2B2804D02D280CD14FF041
:10183000FF300490B969089808F101088847A9F1B8
:101840000109B9F1000FE6DD411CE4D00A21FFF7E0
:1018500092FC0028DFDB029908F1010801EB81010D
:1018600000EB41000290B969089888470A21FFF708
:1018700082FC099AA9F10109B9F1000FC2F80080B0
:1018800001DD0028E7DAF969089888470499029889
:1018900000FB016655EA040004D004F04041090051
:1018A00002D006E0039898E0A40044EA9574AD00E5
:1018B000B61E04F00041080002D16D196441761E85
:1018C000159810F0240F03D04FF00B095C4803E08B
:1018D0004FF028096FF07D008246564507DAAAEBE3
:1018E00006018944B9F1410F01DD4FF041090120A2
:1018F0000021A9F1010200F044F9024628400B46FC
:101900002140084301D0012100E00021501E029136
:1019100043F1FF3128402140084301D0012000E07D
:1019200000200299834651EA0B014FD0002108465E
:101930004FF00000039900F4400039B100EB800043
:101940004FF4400100EBD07001EA600080150128DF
:1019500002DD4FF0FF3000E013D0401C36D002987B
:1019600060B3BBF1000F0CD14A460120002100F00A
:1019700008F928402140084301D0012000E0002060
:10198000E0B101204A46002100F0FBF8034640196F
:101990000A4661412D1A8C4111D3B9F1400F09DD7E
:1019A000159810F0240F02D0AAF1340603E0AAF132
:1019B000170600E0761C00254FF0004406E05B1E91
:1019C00042F1FF3220EA030521EA0204CAF10100D4
:1019D000B04206DA1B4903980843019000200090AA
:1019E0000EE0039AC4F3D321E80A0A43164940EAF9
:1019F00044500A433146CDE90002684606F091FEA4
:101A0000159810F0240F0BD01598C00715D1386821
:101A1000DDE90012031D3B600068C0E900120CE024
:101A200002A8694606F074FE1598C00705D138680B
:101A3000029A011D3960006802604046F0E600002D
:101A400002FCFFFF0000F07F0000F03F2DE9FF4F98
:101A500092461D4685B04FF00041DDE9124BDDE9AD
:101A600014727F1E01EA4B50414940F0FF4940EAA1
:101A70000108002122F020004928049102D04E28BC
:101A800028D04CE03BA0012607C88DE80700A969D3
:101A90000698641C88477F1E014606D41DF8060080
:101AA00018B121F0200181420BD0E96906988847DE
:101AB000032E34D0082E32D06FF0010009B0BDE8FB
:101AC000F08F761C032E01D0082EE0D1601CCAF8DE
:101AD0000000DCE7A9690698641C88477F1E2AD4A9
:101AE00020F02000412826D1A9690698641C884767
:101AF0007F1E20D420F020004E281CD1A969069812
:101B0000641C88477F1E48F4002849F48009CAF8FD
:101B1000004001D4282806D0E969069888475FEA82
:101B2000CB7012D022E0A9690698641C88477F1EFA
:101B300001D4002803DAE96906988847BCE7292818
:101B4000F1D1641CCAF80040E9E71BF0240F07D06C
:101B500028680499031D2B600068C0E9001805E09F
:101B60002868021D2A600068C0F800902046A5E79A
:101B70000000F07F494E46494E495459000000008C
:101B80007047B2F120030AD5C2F1200301FA02F135
:101B900020FA03F300FA02F041EA0301704700FA69
:101BA00003F14FF0000070475FEA400C08BF91F06E
:101BB000000F4FEA8C234FEAC12243EA51514FEA0A
:101BC0001C5018BF00F5F0404FEA300018BF41F03C
:101BD00000415FEA6C5C00F02980BCF1FF3F08BF68
:101BE00040F080407047130C06BF12044FF0100CF9
:101BF0004FF0000C130E04BF12020CF1080C130F6F
:101C000004BF12010CF1040C930F04BF92000CF1FD
:101C1000020CD30F04BF52000CF1010C11464FF01F
:101C20000002A0F11F00A0EB0C00704711F0004F64
:101C300008BF704731F000413FF4D5AF0B0C06BF31
:101C400009044FF0100C4FF0000C0B0E04BF0902FA
:101C50000CF1080C0B0F04BF09010CF1040C8B0FE5
:101C600004BF89000CF1020CCB0F04BF49000CF13A
:101C7000010CCCF12003A0EB0C0022FA03F302FAD2
:101C80000CF241EA030100F10100704720F07F4CA3
:101C900080EA030023F07F47ACEB070303F57C5396
:101CA00000F0004003F1FF032DE980494FEA154B96
:101CB00009B44FEA144325EA0B4E24EA03480FF215
:101CC000042606EB132749083E785FEA320203FB3D
:101CD0000667C7F5000707FB06F64FEA54374FEAD9
:101CE000D64606F1020607FB066CCCF1005C4FEA13
:101CF0001C472CEA074C07FB06F40CFB06F504EB2B
:101D000015464FEA961634BF00204FF000404FEAC8
:101D1000D13706FB07FC4FEA1C4C0CFB0BF7D21B20
:101D200003FB0CF761EB07010CFB0EF7B0EB074070
:101D300072EB17420CFB08F734BFA2EB0742B2EB81
:101D4000074261EB17414FEA0C444FEA910706FB4B
:101D500007FC4FEA1C4C0CFB0BF7B0EBC74072EBD7
:101D6000573203FB0CF734BFA2EBC742B2EBC742BA
:101D700061EB57310CFB0EF7B0EBC70072EB5772FB
:101D80000CFB08F734BFA2EBC702B2EBC70261EB52
:101D90005771039F4FEA816141EA921104EBCC0431
:101DA0004FEAD1374FEA826206FB07FC42EA901203
:101DB0004FEA80604FEA1C4C0CFB0BF7D21B03FB75
:101DC0000CF761EB07010CFB0EF7B0EB074072EB71
:101DD00017420CFB08F734BFA2EB0742B2EB0742F5
:101DE00061EB17414FEA8C554FEA910704EB9C24B5
:101DF00006FB07FC4FEA1C4C0CFB0BF7B0EBC74093
:101E000072EB573203FB0CF734BFA2EBC742B2EBC5
:101E1000C74261EB57310CFB0EF7B0EBC70072EB1A
:101E200057720CFB08F734BFA2EBC702B2EBC70234
:101E300061EB577115EB4C254FEA816141EA921134
:101E40004FEA82624FEAD13742EA901206FB07FC62
:101E500044F100044FEA80604FEA1C4C0CFB0BF786
:101E6000D21B03FB0CF761EB07010CFB0EF7B0EB89
:101E7000074072EB17420CFB08F734BFA2EB074296
:101E8000B2EB074261EB174115EB1C154FEA8131AC
:101E900041EA92414FEA823242EA90424FEA803070
:101EA0004FEA0C7644F1000448EA03434EEA0B483B
:101EB0004FF0000EB2EB080C71EB030724BF624633
:101EC00039464EEB0E0E4FF0000B001852414941BF
:101ED0004BEB0B0BB2EB080C71EB03077BF1000B28
:101EE00024BF624639464EEB0E0E4FF0000B001831
:101EF000524149414BEB0B0BB2EB080C71EB030762
:101F00007BF1000B24BF624639464EEB0E0E51EAC0
:101F1000020718BF46F0010616EB0E7655F10002D7
:101F200054F1000103D5BDE88901BDE80088BDE892
:101F30008901BDE80048B619524141EB0101A3F106
:101F40000103704780807F7E7D7C7B7A797877760D
:101F500076757473727171706F6E6E6D6C6C6B6A86
:101F60006A69686867666665646463636261616024
:101F7000605F5F5E5E5D5D5C5C5B5B5A5A595958A1
:101F8000585757565655555554545353525252510B
:101F9000515050504F4F4F4E4E4D4D4D4C4C4C4B61
:101FA0004B4B4A4A4A4949494848484747474746A8
:101FB00046464545454444444443434343424242E4
:101FC0004241414146EA0646A3F570534FEA1646A0
:101FD00046EA42564FEAD22242EA415210B54FEA4F
:101FE000D121A3F1010300F02FF820F0004000F10F
:101FF000020C00F0004701EB00501146BCF5006FE9
:1020000040EA070000D210BDBAF1000F0AD01CB59B
:1020100003B44FF004004FF004014FF000000FBC78
:10202000BDE810404FF00001BBF1010FB9BF0448FB
:102030004FF0FF310348002140EA070010BD00BF08
:10204000FFFFEF7F0000F07F002B9C4630D477002D
:102050002BD01CB54FEA370703B44FF010004FF0F8
:102060001001BAF1000F06D0BCF1000FDCBF40F048
:10207000080040F008014FF000000FBCBDE8104020
:102080000BF1010BBBF1010F08BF5FEA170722BF7D
:1020900012F1010211F101014FF0004143F100037F
:1020A00000F0004043EA00007047F9D35708D0E73A
:1020B00046EA064613F1400F4FEA16461FDD13F1BC
:1020C000200FDFBF16430A46002120335B42BED0FB
:1020D000C3F1200746EA064602FA07F74FEA16461A
:1020E00046EA0706C3F1200722FA03F201FA07F7CE
:1020F00021FA03F14FF0000342EA0702A7E746EA9C
:10210000020646EA06464FEA164646EA0106BCBF04
:1021100046EA0646360C4FF000034FF000024FF03F
:10212000000194E72DE9804C9A46934670B491E8FB
:10213000380007C831EA400C48BF34EA430C03D5E5
:10214000FFF7A4FDFFF780FFF0BCBDE8008C2DE990
:10215000804C9A46934670B491E8380007C831EA3B
:10216000400C48BF34EA430C03D5FFF78FFDFFF75F
:1021700029FFF0BCBDE8008C2DE9804C9A469346BF
:1021800070B491E8380007C810F0804F08BF13F012
:10219000804F03D100F01AF8FFF756FFF0BCBDE8FE
:1021A000008C2DE9804C9A46934670B491E8380033
:1021B00007C810F0804F08BF13F0804F03D100F024
:1021C00005F8FFF7FFFEF0BCBDE8008C20F07F476C
:1021D00080EA030023F07F4C07EB0C03A3F57C534C
:1021E00000F00040A3F1FE0392F0000F00F0B38076
:1021F00095F0000F00F077802DE901494FEA11407A
:102200004FEA144621EA004800FB06FC24EA064790
:1022100008FB06F607FB08F800FB07F718EB064873
:102220004CEB164C4FEA124B18EB07484FEA154699
:102230004CEB174022EA0B4E0BFB06FC25EA064747
:102240000EFB06F607FB0EFE0BFB07F71EEB064E1A
:102250004CEB164C4FF000061EEB074E4CEB174BA9
:1022600018EB0B0840F1000018EB0E0B58EB0008C0
:1022700040F100008F1A4FF000013CBFC943661BBC
:1022800014BFB5EB040C00213CBFC943F61B4FEA59
:1022900017444EEA8E0E27EA04454FEA1C4704FB1A
:1022A00007622CEA074C05FB07F70CFB05F604FB5D
:1022B0000CFC16EB074642EB174216EB0C4642EBC2
:1022C0001C421BEB060658EB0202414146EA9E0601
:1022D00001D5BDE80189B619524141EB0101A3F1D5
:1022E0000103BDE801894FEA14454FEA114724EA8A
:1022F000054621EA074C05FB07F406FB07F70CFB34
:1023000006F105FB0CFC11EB074144EB17444FEAC7
:10231000124711EB0C4144EB1C4422EA074C05FB2D
:1023200007F206FB07F70CFB06F605FB0CFC16EBA9
:10233000074642EB174216EB0C4642EB1C456A1867
:1023400054F1000148BF7047B619524141EB0101F9
:10235000A3F10103704795F0000F37D04FEA114207
:102360004FEA144721EA024624EA074C02FB07F130
:1023700006FB07F70CFB06F402FB0CFC14EB07440E
:1023800041EB17414FEA154714EB0C4441EB1C415C
:1023900025EA074C02FB07F506FB07F70CFB06F6E0
:1023A00002FB0CFC16EB074645EB174516EB0C46FB
:1023B00045EB1C42121951F1000148BF7047B61994
:1023C000524141EB0101A3F1010370474FEA14456B
:1023D0004FEA114724EA054621EA074C05FB07F1BD
:1023E00006FB07F70CFB06F24FF0000605FB0CFCA2
:1023F00012EB074241EB174112EB0C4251EB1C412F
:1024000048BF7047921841EB0101A3F101037047E7
:1024100010B504464B48416821F4403141604168A1
:102420006268114341602068416821F48071416015
:1024300020684168226941EA0221416020684168C0
:1024400021F04071416020684168A26811434160F9
:102450002068816821F40061816020688168E268F9
:1024600011438160A06A6FF07061C8422068816882
:1024700021F070618160206881680CD0A26A1143EC
:1024800081602068816821F0405181602068816806
:10249000E26A114301E021F04051816020688168C7
:1024A00021F00201816020688168227E41EA4201B8
:1024B000816094F8200000283FD0606A401E072801
:1024C00004D940F2A67120A006F03CF920684168CA
:1024D00041F4006141602068416821F4604141603D
:1024E00020684168264B626A03EB42321143416027
:1024F0002068C16A21F47001C1622068C16AA28BA0
:10250000204B03EB02521143C1622068816821F421
:10251000007181602068816894F8302041EA42218E
:1025200081602068816821F4806181602068816811
:10253000626941EA8221816010BD2068416821F40E
:102540000061D4E7002301402E2E2F447269766586
:1025500072732F53544D3332463478785F48414C70
:102560005F4472697665722F5372632F73746D3393
:1025700032663478785F68616C5F6164632E6300F3
:1025800000E0FFFF0000F0FF88B004F0E7FB04F07C
:1025900045FD06A9684604F043FDFAE72DED028BE0
:1025A0009AB000F08DFA05F02BF9404F404E9FEDA8
:1025B000418A414C414D00231A4619A9386806F05A
:1025C00037FA28B99DF8640010B900F0F5FA3070B8
:1025D00000F0CCFA02A800F06DFA9DF808008DF822
:1025E00044009DF809008DF845009DF80A008DF81B
:1025F00046009DED030AB8EEC00A20EE080ABDEEC3
:10260000C00A8DED120A9DED040AB8EEC00A20EE54
:10261000080ABDEEC00A8DED130A9DED050A8DED89
:10262000140A9DED060A8DED150A9DED070A8DED44
:10263000160A9DED080A8DED170A30788DF86000B6
:10264000206806F027FA28B900231A4601A9206855
:1026500006F0EEF900231A4611A9206806F05CFA8C
:1026600005F0E8F80CA805F0C5F89DED0E0A8DED13
:10267000090A9DED0F0A8DED0A0A9DED100A8DEDF8
:102680000B0A286806F006FA28B900231A4606A99C
:10269000286806F0CDF900231A4609A9286806F033
:1026A0003BFA142006F016F985E700004000001000
:1026B000100000208096184B340000103C000010E1
:1026C000FEE7000090ED000AD1ED000A264B30EE47
:1026D000600AB0EEC00A10EE102A9A4240DC90ED7B
:1026E000010AD1ED010A214B30EE600AB0EEC00ABA
:1026F00010EE102A9A4233DC90ED020AD1ED020A64
:102700001B4B30EE600AB0EEC00A10EE102A9A425F
:1027100026DC90ED030AD1ED030A164B30EE600A79
:10272000B0EEC00A10EE102A9A4219DC90ED040AAD
:10273000D1ED040A104B30EE600AB0EEC00A10EE84
:10274000102A9A420CDC90ED050AD1ED050A0B49DE
:1027500030EE600AB0EEC00A10EE100A884201DDC9
:102760000120704700207047F2D2CD3D82E2C73C85
:1027700010E9B73D23DBF93FCFF72340045666400D
:10278000014800F0B5BC000044070020014800F0FB
:10279000AFBC000050020010014800F0A9BC0000CE
:1027A00084060020014800F0A3BC0000E4060020DD
:1027B000014800F09DBC0000B0020010014800F08C
:1027C00097BC000010030010014800F091BC00000D
:1027D000A4070020014800F08BBC0000C4050020C5
:1027E000014800F085BC000024060020014800F0EC
:1027F0007FBC00009408002001681823CAB2103A78
:10280000B2FBF3F2054B6FF30901032A9B5CC3652E
:1028100000D9091D816508467047000054B10008C1
:1028200010B5014600208B698A6A4FF0C07453B11D
:10283000B3F5005F15D072B1012A0CD0022A0AD07C
:10284000032A09D104E01AB1012A06D0022A03D1D1
:10285000C96AC90100D5012010BDC96AA142FAD0D8
:1028600010BD002AF7D0012AF2D0022AF3D0032AA1
:10287000F3D010BD30B50468256825F480252560A7
:10288000046863608368402B036803D09960006824
:10289000C26030BD9A600068C16030BD0748016801
:1028A00041F080710160064800214160016841F0FB
:1028B000010101600349012008707047FCED00E050
:1028C000001000E00000002070B5144C144D2DEDF8
:1028D000028B20789FED138AD8B1686861686060C8
:1028E000411A00EE101A10481049F8EE400A90ED17
:1028F000000AB8EE401A80EE810A10EE100A084471
:102900000B49884202D300BFB0EE480ABDEC028BEF
:1029100070BDFFF7C3FF68686060F5E70000002046
:10292000001000E00AD7A33A3C00002091ED7CC5DE
:1029300038894100704700002DE9F04F0C463549B9
:102940000546B5B00868401C086040075FD195EDAA
:10295000020AD4ED020A30EE600A10EE100A08F006
:10296000EDF9CDE9020195ED010AD4ED010A30EE51
:10297000600A10EE100A08F0E1F9CDE9000195EDCA
:10298000000AD4ED000A30EE600A10EE100A08F0DA
:10299000D5F995ED050AD4ED050A06460F4630EE49
:1029A000600A10EE100A08F0C9F995ED040AD4ED9A
:1029B000040A82468B4630EE600A10EE100A08F0D8
:1029C000BDF995ED030AD4ED030A8046894630EE41
:1029D000600A10EE100A08F0B1F9DDE90234CDE921
:1029E0000A34DDE900340A468DE8050FCDE90834E4
:1029F00009A2A0210CA8CDE90667FDF743FD002838
:102A000005DD82B20A230CA9134803F01DFF35B07F
:102A1000BDE8F08F04000010645F67783D252E3319
:102A20006620645F67793D252E336620645F677A90
:102A30003D252E336620645F61783D252E34662067
:102A4000645F61793D252E346620645F617A3D259F
:102A50002E34660D0A0000000C0200104FF40040F6
:102A600000F008BE102000F005BE72B6FEE700229E
:102A7000AFF3008030B50E4B054601205C7A002C88
:102A800014D1587A1C54587A03EB800045605D7A63
:102A900003F108002A54587A421C5A7230300870E8
:102AA0003A2048702F208870CC70002030BD000084
:102AB000700300101C220149FDF738BE4C020020B3
:102AC00010B54FF480720649064803F0BCFB054878
:102AD000806B0068016821F00801016010BD0000F2
:102AE0004C0000208401001030B5ADB001465F22DB
:102AF00014A8FDF77CFE002314A814248DF8AF3031
:102B00006D46012100900CE02A2A02D02C2A02D026
:102B100006E0037009E00370421C45F82120491CBF
:102B2000401C02780AB1A142EEDB0CB206220BA1D6
:102B30000098FDF76BFD60B106220AA10098FDF731
:102B400065FD002803D12146684606F0C7F82DB080
:102B500030BD2146684606F095F8F8E724474E4711
:102B60004741000024474E524D4300002DE9F041FB
:102B70000F480178002918D04188002606700D48BA
:102B8000451810E02A1A2421FDF736FD07000CD065
:102B9000EA1B0A21FDF730FD040006D026703846F6
:102BA000FFF7A2FF601CA842ECD3BDE8F081000053
:102BB000000000104C0100200948017871B14178F3
:102BC00004290BD390ED030A00F11C0181ED020AE8
:102BD00042680A60806848600120704700207047A2
:102BE0004C020020F8B500260546009608680C4601
:102BF000122804D940F289615DA005F0A3FD606848
:102C0000401E0F2804D940F28A6159A005F09AFDB0
:102C1000A06890B1012810D002280ED003280CD053
:102C200004280AD0052808D0062806D0072804D092
:102C300040F28B614EA005F085FD95F83C0001281F
:102C400019D0012085F83C00206807212A6809284E
:102C500013D9D3680A3800EB400081408B43D3601E
:102C60002178A0680A3901EB410188402968CA68C7
:102C70001043C86010E00220F8BD136900EB40006B
:102C800081408B4313612178A06801EB41018840AA
:102C900029680A691043086160681F21072813D258
:102CA0002A68536B401E00EB800081408B435363C6
:102CB00021792088491E80B201EB81018840296872
:102CC0004A6B1043486327E02A680D2812D2136B21
:102CD000C01F00EB800081408B4313632179208863
:102CE000C91F80B201EB8101884029680A6B10433B
:102CF000086311E0D36A0D3800EB800081408B43FC
:102D0000D362217920880D3980B201EB810188409E
:102D10002968CA6A1043C86224492A6822488A423C
:102D200006D12268122A03D1426842F4800242602E
:102D30002A688A4218D12168102901D0112913D19B
:102D4000416841F400014160206810280CD1184806
:102D500018490068B0FBF1F000EB8000400000E093
:102D6000401E00900028FBD185F83C600020F8BD93
:102D70002E2E2F447269766572732F53544D333261
:102D8000463478785F48414C5F4472697665722FAB
:102D90005372632F73746D3332663478785F686171
:102DA0006C5F6164632E63000023014000200140DA
:102DB0003C00002040420F002DE9F04704004FF096
:102DC00000057DD07249206888420AD07149884246
:102DD00007D07149884204D040F243116FA005F03A
:102DE000B1FC606868B1B0F5803F0AD0B0F5003F33
:102DF00007D0B0F5403F04D04FF4A27167A005F0B2
:102E0000A1FCA0684FF080774FF000784FF0407938
:102E100050B1B84208D0404506D0484504D040F2F1
:102E200045115EA005F08EFC206930B1012804D068
:102E30004FF4A37159A005F085FC207E30B1012824
:102E400004D040F2471155A005F07CFC614EA06A09
:102E500080B3B8422ED040452CD048452AD0B0F19E
:102E6000806F27D0B0F1A06F24D0B0F1C06F21D017
:102E7000B0F1E06F1ED0B0F1006F1BD0B0F1106F59
:102E800018D0B0F1206F15D0B0F1306F12D0B0F182
:102E9000406F0FD0B0F1506F0CD0B0F1606F09D01F
:102EA000B0F1706F06D0B04204D04FF4A4713BA0D3
:102EB00005F048FCE06848B1B0F5006F06D000E0CE
:102EC00043E040F2491135A005F03CFCE069401EAA
:102ED0000F2804D94FF4A57130A005F033FC94F805
:102EE000300030B1012804D040F24B112BA005F086
:102EF00029FC6069012807D030B1022804D04FF4C2
:102F0000A67126A005F01EFC94F8200030B101281F
:102F100004D040F24D1121A005F014FCA06AB0428B
:102F20000FD0E06A68B1B0F1805F0AD0B0F1005F05
:102F300007D0B0F1405F04D040F2511117A005F066
:102F400001FC206C002618B108E00120BDE8F087E4
:102F5000204600F041F8666484F83C60206CC006AE
:102F600010D4206C20F4885040F0020020642046E9
:102F7000FFF74EFA6664206C20F0020040F001007A
:102F8000206400E0012584F83C602846DEE700006C
:102F90000020014000210140002201402E2E2F443C
:102FA0007269766572732F53544D33324634787894
:102FB0005F48414C5F4472697665722F5372632F8C
:102FC00073746D3332663478785F68616C5F616406
:102FD000632E63000100000F10B586B00446142173
:102FE0006846FDF7DDFB1149206888421BD1104877
:102FF0000021026842F480720260006800F4807070
:1030000005900B481438026842F004020260006820
:1030100000F00400059003200090CDE9010169460D
:10302000044800F033FB06B010BD00000020014052
:1030300044380240000802402DE9F0410446876D03
:1030400000F0D4FC064694F835000025022806D08E
:103050008020606584F834500120BDE8F08120684C
:10306000016821F0160101602068416921F08001AA
:103070004161206C08B9A06C20B12068016821F082
:10308000080101602068016821F0010101600CE085
:1030900000F0ACFC801B052807D9202060650320C8
:1030A00084F8350084F83450D7E720680068C007FA
:1030B000EED194F85C103F208840B860012084F87D
:1030C000350084F834500020C7E790F83510022905
:1030D00003D08021416501207047052180F835101B
:1030E0000068016821F001010160002070470000C4
:1030F0002DE9F84304464FF00009CDF800906348ED
:103100004FF41651A56D0068B0FBF1F72E6894F8E6
:103110005C10082000FA01F131420FD021680A68E2
:1031200052070BD50A6822F004020A6094F85C107A
:103130008840A860606D40F00100606594F85C1004
:103140004FF0010808FA01F0304208D021684969BF
:10315000090604D5A860606D40F00200606594F82F
:103160005C1004208840304208D021680968890733
:1031700004D5A860606D40F00400606594F85C10B0
:1031800010208840304218D021680968090714D5FA
:10319000A86020680168490304D50068000308D5C9
:1031A000A16C07E00168C90503D4016821F008019A
:1031B0000160216C09B12046884794F85C102020FA
:1031C0008840304231D021680968C9062DD5A860F1
:1031D00094F8350005282068016806D0490347D5D2
:1031E000006800031DD4616C1CE021F01601016031
:1031F0002068416921F080014161206C08B9A06C10
:1032000020B12068016821F00801016094F85C1089
:103210003F208840A86084F8358084F83490216D80
:103220001FE0E16B09B120468847606D00282BD074
:10323000606DC00714D0052084F83500206801684F
:1032400021F0010101600098401C0090B84203D8B1
:1032500020680068C007F6D184F8358084F834907F
:10326000E16C002910D001B02046BDE8F0430847CA
:103270000168C905D5D4016821F01001016084F806
:10328000358084F83490CCE7BDE8F8833C0000201A
:103290002DE9F041044600F0A9FB0546002C7CD046
:1032A000A249206888423ED0A049183188423AD0CD
:1032B0009E493031884236D09C494831884232D0CC
:1032C0009A49603188422ED09849783188422AD074
:1032D00096499031884226D09449A831884222D01C
:1032E000934988421FD09249183188421BD0904997
:1032F0003031884217D08E494831884213D08C49EA
:10330000603188420FD08A49783188420BD0884991
:103310009031884207D08649A831884203D0B8212D
:1033200084A005F00FFA6068C0B1B0F1007F15D03D
:10333000B0F1806F12D0B0F1C06F0FD0B0F1006F5C
:103340000CD0B0F1206F09D0B0F1406F06D0B0F1D1
:10335000606F03D0B92177A005F0F4F9A06838B107
:10336000402805D0802803D0BA2172A005F0EAF9E0
:10337000E068B0F5007F04D018B1BB216DA005F066
:10338000E1F92069B0F5806F04D018B1BC2169A0C3
:1033900005F0D8F9606958B100E071E0B0F5006F50
:1033A00006D0B0F5805F03D0BD2162A005F0CAF958
:1033B000A06948B1B0F5005F06D0B0F5804F03D0EA
:1033C000BE215CA005F0BEF9E06940B1B0F5807F98
:1033D00005D0202803D0BF2156A005F0B3F9206AFC
:1033E00060B1B0F5803F09D0B0F5003F06D0B0F530
:1033F000403F03D0C0214FA005F0A4F9606A002827
:1034000032D0042806D0C1214AA005F09BF9606A99
:10341000002829D0A06A48B1012807D0022805D089
:10342000032803D0C62143A005F08CF9E06A60B1FF
:10343000B0F5000F09D0B0F1807F06D0B0F1C07FA9
:1034400003D0C7213BA005F07DF9206B60B1B0F53A
:10345000001F09D0B0F5800F06D0B0F5C00F03D023
:10346000C82134A005F06EF9022084F8350000264A
:1034700084F834602068016821F0010101600EE0E9
:103480000120BDE8F08100BF00F0B0FA401B052824
:1034900005D920206065032084F83500F1E7206815
:1034A0000068C007F0D12268116830480140D4E9B3
:1034B00001031843D4E903352B43184363691843C8
:1034C000A3691843E3691843236A18430843616AF0
:1034D000042903D1D4E90B13194308431060206871
:1034E0004069656A20F00700294605430127042941
:1034F0000CD1A06A0543E06A40B12046FFF790F97D
:1035000020B14020606584F83570B9E720684561D6
:103510002046FFF771F994F85C203F2191408160CB
:10352000666584F835700020ABE70000106002404B
:10353000106402402E2E2F447269766572732F53E9
:10354000544D3332463478785F48414C5F44726959
:103550007665722F5372632F73746D3332663478CD
:10356000785F68616C5F646D612E63003F8010F06E
:103570002DE9F04789460446876D0025581E4FF611
:10358000FF711E469046884204D34FF4E6711CA09A
:1035900005F0D8F894F8340001280DD0012084F803
:1035A000340094F835100020012907D084F8340045
:1035B00002252846BDE8F0870220FBE7022184F8B7
:1035C000351060653346424649462046FFF752F9BA
:1035D00094F85C103F208840B8602068016841F092
:1035E00016010160206C20B12068016841F00801DB
:1035F00001602068016841F001010160D9E7000025
:103600002E2E2F447269766572732F53544D3332C8
:10361000463478785F48414C5F4472697665722F12
:103620005372632F73746D3332663478785F6861D8
:103630006C5F646D612E630070B5044600F0D6F9CE
:103640000546601C02D004480078044400F0CEF91E
:10365000401BA042FAD370BD30000020102805D0D6
:10366000B0F5004F04D1012003F0E8BB0020FBE7D8
:1036700070470000044910B50A68024202D0086091
:10368000FFF7ECFF10BD0000143C01402DE9F84F9E
:10369000DFF880B20D46044658451BD09E48844250
:1036A00018D09E48844215D09D48844212D09D482F
:1036B00084420FD09C4884420CD09C48844209D05C
:1036C0009B48844206D09B48844203D0AC219AA0F8
:1036D00005F038F828680104090C01D0000C03D06B
:1036E000AD2195A005F02EF86868F8B101281DD02D
:1036F00011281BD0022819D0122817D0B0F5881F26
:1037000014D0B0F5041F11D0B0F5441F0ED0B0F5A1
:10371000901F0BD0B0F5081F08D0B0F5481F05D09A
:10372000032803D0AE2184A005F00CF800264FF04A
:10373000010A4FF0030900BF0AFA06F02F6880461D
:10374000074047457DD1287900F00300012801D0CA
:1037500002281DD1E86848B1012807D0022805D009
:10376000032803D0C02174A004F0ECFFA06872000D
:1037700009FA02F18843E96891400143A160606859
:10378000297920EA0800C1F30011B14001436160CA
:103790002879C043800712D0A86838B1012805D025
:1037A000022803D0D12164A004F0CCFFE0687200AD
:1037B00009FA02F18843A96891400143E160287940
:1037C00000F0030002282AD12869D8B1092819D0AD
:1037D000012817D0022815D0032813D0042811D0AF
:1037E00005280FD006280DD007280BD0082809D0AF
:1037F0000A2807D00C2805D00F2803D0DE214EA0C0
:1038000004F0A0FFF00804EB8002106A7107CB0EF1
:103810000F2199408843296999400143116220682A
:10382000720009FA02F18843297901F003019140FD
:1038300001432160686810F4403F64D04D4801683E
:1038400000E060E041F480410160006826F003017F
:1038500000F48040009048480A18D2F80808B107E0
:103860000B0F0F21994088435C4501D1002123E0D3
:1038700029498C4201D101211EE028498C4201D105
:10388000022119E026498C4201D1032114E0254987
:103890008C4201D104210FE023498C4201D1052142
:1038A0000AE022498C4201D1062105E020498C42E0
:1038B00001D1072100E0082199400143C2F808180E
:1038C0002E4908686A68B843D20300D538430860B7
:1038D0002A49091D08686A68B843920300D538432D
:1038E00008602649083108686A68B843D20200D5E2
:1038F0003843086021490C3108686A68B84392026D
:1039000000D538430860761C102EFFF415AFBDE8D3
:10391000F88F00000000024000040240000802404E
:10392000000C024000100240001402400018024047
:10393000001C0240002002402E2E2F447269766542
:1039400072732F53544D3332463478785F48414C6C
:103950005F4472697665722F5372632F73746D338F
:1039600032663478785F68616C5F6770696F2E6368
:10397000000000004438024000300140003C01409B
:1039800070B515460C00064604D140F29D1108A002
:1039900004F0D8FE45B1012D04D04FF4CF7104A03E
:1039A00004F0D0FEB46170BD2004B06170BD0000B1
:1039B0002E2E2F447269766572732F53544D333215
:1039C000463478785F48414C5F4472697665722F5F
:1039D0005372632F73746D3332663478785F686125
:1039E0006C5F6770696F2E6300000000014880689B
:1039F000704700003000002070B504007DD08A4977
:103A0000206888420AD08949884207D0884988427C
:103A100004D040F2BF1187A004F094FE606893497F
:103A2000401E884204D94FF4E07182A004F08AFE5F
:103A3000A0684FF4804530B1A84204D040F2C111D3
:103A40007CA004F07FFEE068800A04D04FF4E171AE
:103A500078A004F077FE2069A84207D0B0F5404F67
:103A600004D040F2C31173A004F06CFE606930B161
:103A7000012804D04FF4E2716EA004F063FEA06947
:103A800030F0FE0004D040F2C5116AA004F05AFEE6
:103A9000E06930B1402804D04FF4E37165A004F030
:103AA00051FE206A30B1802804D040F2C71161A0D5
:103AB00004F048FE94F83D00002520B984F83C50FD
:103AC000204600F0BBFA242084F83D0020680168FD
:103AD00021F0010101602068016841F400410160AA
:103AE0002068016821F40041016000F0CBFD604ACC
:103AF0006168914202D85F4901E002E05E49884274
:103B000001D2012070BD5D492368B0FBF1F15E6810
:103B100026F03F060E435E606368934206D94FF479
:103B2000967359434FF47A73B1FBF3F12368491C40
:103B30001E6A26F03F06314319626168914210D82F
:103B40004900401EB0FBF1F2521CC2F30B02042AE2
:103B500001D2042022E0B0FBF1F0401CC0F30B00C6
:103B60001CE0A368F3B301EBC10202EB0116421E95
:103B7000B2FBF6F2521C42F48042120549D093B3D4
:103B800001EBC10202EB0111401EB0FBF1F0401C41
:103B9000C0F30B0040F4804040F400402168CA6943
:103BA0004CF6FF739A431043C861D4E907100143F0
:103BB0002068026822F0C00211430160D4E90301C9
:103BC00001432068826848F2FF339A4311438160C1
:103BD000D4E9050108432168CA6822F0FF021043B6
:103BE000C86001E00EE016E02068016841F00101C4
:103BF00001602564202084F83D00256384F83E5050
:103C0000002070BD01EB4106421EB2FBF6F2521CD1
:103C1000B3E70120C2E701EB4101401EB0FBF1F028
:103C2000401CC0F30B00B7E70054004000580040B0
:103C3000005C00402E2E2F447269766572732F53FC
:103C4000544D3332463478785F48414C5F44726952
:103C50007665722F5372632F73746D3332663478C6
:103C6000785F68616C5F6932632E63007F1A0600BB
:103C7000A086010080841E0000093D0040420F0024
:103C80002DE9FF4F83B01F46DDE911A89346044696
:103C9000DDF84090FFF7AAFE0546012F06D0102F51
:103CA00004D040F6352175A004F04CFD94F83D0099
:103CB000202870D1192301227E492046009502F068
:103CC00065FF0028F5D194F83C00012863D001205D
:103CD00084F83C0020680168C90703D1016841F0FD
:103CE000010101602068016821F400610160222067
:103CF00084F83D00402084F83E0000262664C4F885
:103D00002490A4F82AA0608D20856B48E062CDE95C
:103D100000853B465A462046049902F03FFE0028A3
:103D20007CD1208DD0B1012821D00228206824D058
:103D3000416980690090208D032869D801282BD023
:103D40005E49022843464FF00002009559D00F46C5
:103D5000204602F01BFF002860D13CE0206841694A
:103D600081690091016841F40071016077E0206889
:103D7000016821F480610160F0E7016821F480614D
:103D800001602068016841F40061016020684169B8
:103D90008069009063E06FE02A464146204602F0C9
:103DA00074FF98BB20680069616A08704EE0206863
:103DB000016841F40071016020680069616A08705F
:103DC000606A401C6062218D491E2185618D491EFB
:103DD0006185216838E02068016821F48061016014
:103DE00020680069616A0870606A401C6062208D0A
:103DF000401E2085608D401E608543460022394666
:103E00000095204602F0C2FE00B9D0E706E0FFE7C9
:103E10002A464146204602F038FF18B1012007B07B
:103E2000BDE8F08F20680069616A0870606A401C14
:103E30006062218D491E2185618D491E6185216841
:103E40004A69D24352070AD409690170606A401C6A
:103E50006062208D401E2085608D401E6085208D13
:103E600000287FF468AF202084F83D0084F83E608D
:103E700084F83C600020D2E70220D0E72E2E2F44A9
:103E80007269766572732F53544D333246347878A5
:103E90005F48414C5F4472697665722F5372632F9D
:103EA00073746D3332663478785F68616C5F693241
:103EB000632E6300020010000000FFFF04000100F9
:103EC0002DE9FF4F83B01F46DDE911A89346044654
:103ED000DDF84090FFF78AFD0546012F06D0102F30
:103EE00004D040F6BA1145A004F02CFC94F83D0033
:103EF00020287DD1192301224E492046009502F049
:103F000045FE002877D194F83C00012873D00120A9
:103F100084F83C0020680168C90703D1016841F0BA
:103F2000010101602068016821F400610160212025
:103F300084F83D00402084F83E0000262664C4F842
:103F40002490A4F82AA0608D20853B48E062CDE94A
:103F500000853B465A462046049902F09DFD70B903
:103F600030E02A464146204602F0C2FE58B1206C9D
:103F7000042804D12068016841F400710160012027
:103F800007B0BDE8F08F606A216800780861606A58
:103F9000401C6062218D491E89B22185628D521EAE
:103FA000628522685369DB435B070BD469B10078F3
:103FB0001061606A401C6062208D401E2085608D0B
:103FC000401E6085208D0028CBD12A4641462046E0
:103FD00002F0B6FD0028CAD154F83D0B016841F447
:103FE00000710160202004F81E09E677667700E082
:103FF00001E00020C4E70220C2E700002E2E2F447B
:104000007269766572732F53544D33324634787823
:104010005F48414C5F4472697665722F5372632F1B
:1040200073746D3332663478785F68616C5F6932BF
:10403000632E6300020010000000FFFF10B586B081
:10404000044614216846FCF7ABFB134920688842FC
:1040500020D112480021026842F00202026000688A
:1040600000F002000590C02000901220CDE901016F
:10407000022003900420049069460948FFF706FBDC
:1040800006481030016841F400110160006800F436
:104090000010059006B010BD0054004030380240BA
:1040A0000004024070B5040033D0264920688842DD
:1040B00003D0AF2124A004F045FB606878B101284B
:1040C0000DD002280BD0032809D0042807D00528DA
:1040D00005D0062803D0B0211BA004F033FBA06854
:1040E000B0F5805F03D3B12117A004F02BFB21684A
:1040F0004CF6CC400860216845F255500860D4E980
:10410000000141602168A0688860FFF76FFC0546E8
:104110000DE0012070BD00BFFFF768FC401B312897
:1041200005D92068C068800701D0032070BD2068D1
:10413000C0688007F0D121684AF6AA2008600020F4
:1041400070BD0000003000402E2E2F44726976654D
:1041500072732F53544D3332463478785F48414C54
:104160005F4472697665722F5372632F73746D3377
:1041700032663478785F68616C5F697764672E6354
:104180000000000002488168027811448160704795
:10419000300000200B4810B5016841F40071016047
:1041A000016841F480610160016841F4807101603F
:1041B000032000F0E1F80F2000F006F800F03EF8D0
:1041C000002010BD003C024010B5014688B000221E
:1041D000362000F081F8362000F04CF81348002417
:1041E000016841F010010160006805A900F01000AD
:1041F0000690684600F026FA00F044FA0C494000A8
:10420000B0FBF1F10C480B4A491E026040F2E73264
:10421000C0E90324C0E9011401F082F910B10120C2
:1042200008B010BD044801F069FAF9E740380240CF
:1042300040420F0000100040F40800200C4882B0FB
:10424000016841F480410160006800F48040009002
:104250000748001F016841F080510160006800229A
:1042600000F0805000900F21901E02B000F034B892
:104270004438024010B5040003D5BE2107A004F065
:1042800061FA002C09DB04F01F010120884061095C
:10429000890001F1E021C1F8000110BD2E2E2F444C
:1042A0007269766572732F53544D33324634787881
:1042B0005F48414C5F4472697665722F5372632F79
:1042C00073746D3332663478785F68616C5F636FE6
:1042D000727465782E63000070B515460C4606466C
:1042E000102A03D3AA2114A004F02CFA102C03D313
:1042F000AB2111A004F026FA1E480068C0F3022387
:10430000C3F107022046042A00D90422191D0729F7
:1043100001D2002300E0DB1E012404FA02F1491E51
:10432000014099409C40641E2C4021433046BDE82A
:10433000704004F0BCB800002E2E2F4472697665E0
:1043400072732F53544D3332463478785F48414C62
:104350005F4472697665722F5372632F73746D3385
:1043600032663478785F68616C5F636F7274657809
:104370002E6300000CED00E010B5044607280BD0BA
:10438000062C09D0052C07D0042C05D0032C03D013
:10439000922108A004F0D6F9154904F00702086834
:1043A0004FF6FF03184040EA0220124A104308600B
:1043B00010BD00002E2E2F447269766572732F5344
:1043C000544D3332463478785F48414C5F447269CB
:1043D0007665722F5372632F73746D33326634783F
:1043E000785F68616C5F636F727465782E6300003C
:1043F0000CED00E00000FA052DE9F0470E46040040
:104400007DD02068401E0E2804D94FF417717AA081
:1044100004F098F996B1012E10D0022E0ED0032E82
:104420000CD0042E0AD0052E08D0062E06D0072E5A
:1044300004D040F25D2170A004F084F9DFF8F0812F
:10444000D8F80000F7B200F00700B04207D288F8B1
:104450000070D8F8000000F00700B0424FD120688B
:10446000744D810729D5400703D5286840F4E050F2
:1044700028602078000703D5286840F46040286051
:10448000A068A0B1802812D0902810D0A0280ED00B
:10449000B0280CD0C0280AD0D02808D0E02806D0F8
:1044A000F02804D04FF4207153A004F04BF9286891
:1044B000A16820F0F000084328602078C00743D0AE
:1044C000DFF870916068A9F1080988B1012822D04D
:1044D000022824D0032822D040F2872146A004F0ED
:1044E00031F96068012816D0022818D0032816D0A8
:1044F000D9F800008007002833DA286800E030E0AF
:10450000616820F0030008432860FFF76FFA8146D6
:1045100041F2883A11E0D9F800008003EBE7D9F8BE
:1045200000008001E7E700BFFFF760FAA0EB090198
:10453000514502D90320BDE8F0872868616800F082
:104540000C00B0EB810FEFD1D8F80010404601F01D
:104550000701B14207D90770006800F00700B042B8
:1045600001D00120E7E720784FF4805640074FF450
:10457000A0574FF4C0584FF4E05914D5E06860B12B
:10458000B0420AD0B84208D0404506D0484504D0D1
:1045900040F2C52118A004F0D5F82868E16820F49D
:1045A000E050084328602078000715D5206960B1E5
:1045B000B0420AD0B84208D0404506D0484504D0A1
:1045C0004FF433710CA004F0BDF82868216920F481
:1045D000604040EAC100286000F074F82968164A7B
:1045E000C1F30311515CC8401449086014480068C5
:1045F000FFF7EAFD00209EE72E2E2F4472697665B4
:1046000072732F53544D3332463478785F48414C9F
:104610005F4472697665722F5372632F73746D33C2
:1046200032663478785F68616C5F7263632E630012
:10463000003C0240083802405CB100083C00002009
:10464000340000200F2202600C4A136803F00303B9
:104650004360136803F0F0038360136803F4E053CE
:10466000C36012684FF4E05303EAD20202610448C7
:10467000006800F00700086070470000083802403A
:10468000003C02400448054900680968044AC1F337
:104690008221515CC84070473C000020083802402D
:1046A0006CB100080448054900680968044AC1F370
:1046B0004231515CC84070473C000020083802403D
:1046C0006CB10008104810B5006810F00C010F48DC
:1046D00018D0042916D0082914D10B4C241F2168A6
:1046E00001F03F02216821680023C1F38811A1FB7A
:1046F0000001FBF72BFE2168C1F30141491C490071
:10470000B0FBF1F010BD0000083802400024F400B6
:104710002DE9F84F04007DD020680F2803D9E82147
:10472000F7A004F00FF82078DFF80C94C007A9F187
:10473000040555D060684FF480364FF4A02738B197
:10474000B04205D0B84203D0ED21EDA003F0FAFF4E
:10475000F948001D0168C1F38101012908D00068F2
:10476000C0F3810002280AD1D9F80000400206D522
:104770002868800334D560680028CCD030E06068B9
:10478000B04203D1286840F480300CE0B842286879
:1047900003D140F480202860F4E720F480302860C2
:1047A000286820F480202860606860B1FFF71EF957
:1047B000064604E0FFF71AF9801B64287ED82868B3
:1047C0008003F7D50CE0FFF711F9064605E000BFBE
:1047D000FFF70CF9801B6428F0D828688003F7D411
:1047E0002078DFF8588380074FF0000A56D5E0683C
:1047F00030B1012804D040F21F11C1A003F0A2FF84
:1048000020691F2804D94FF49071BDA003F09AFFCE
:10481000C94800E092E0001D016811F00C0F08D0BB
:104820000068C0F38100022810D1D9F800004002CE
:104830000CD42868800702D5E06801287ED128685A
:10484000216920F0F80040EAC10017E0E068B8B143
:104850000120C8F80000FFF7C9F8064605E000BFD0
:10486000FFF7C4F8801B0228A8D828688007F7D56E
:10487000286820F0F801206941EAC00028600DE0B6
:10488000C8F800A0FFF7B2F8064604E0FFF7AEF85C
:10489000801B022892D828688007F7D42078000768
:1048A0002ED5A54EA64F60697036D0B1012808D02C
:1048B0004FF4B07192A003F045FF00E04BE1606956
:1048C00078B101203860FFF791F8074605E000BF96
:1048D000FFF78CF8C01B0228C6D830688007F7D5D0
:1048E0000EE0C7F800A0FFF781F8074605E000BF1B
:1048F000FFF77CF8C01B0228B6D830688007F7D4D1
:104900002078400776D5A068002740B1012806D05E
:10491000052804D04FF4C67179A003F013FFDFF827
:1049200018B20BF13C0BDBF80000C0000DD4DBF833
:10493000001041F08051CBF8001000E038E1DBF8C6
:104940000000012700F0805000907E4E3068C005C6
:1049500011D4306840F480703060FFF747F8009061
:1049600006E000BFFFF742F80099401A022891D8EC
:104970003068C005F6D5704EA0686C3601280FD09F
:104980000528306810D020F001003060306820F039
:1049900004003060A068B8B1FFF728F800900FE07D
:1049A000306840F00100F4E740F004003060F7E7C1
:1049B000FFF71CF80099411A41F2883081428BD8E8
:1049C00030688007F4D50EE0FFF710F8009007E09C
:1049D000FFF70CF80099411A41F2883081428BD8D8
:1049E00030688007F4D42FB1DBF8001021F080513B
:1049F000CBF80010A069002876D0012809D0022841
:104A000007D040F2CF113EA003F09CFEA069002821
:104A1000F2D04948001D0068C0F381000228A06957
:104A20006DD0022805D0C8F860A0FEF7DFFF04466D
:104A300094E0E06938B1B0F5800F04D04FF4EC7128
:104A40002FA003F07FFE206A3F2804D940F2D9113D
:104A50002BA003F077FE606A3238B0F5BF7F04D92F
:104A60004FF4ED7126A003F06DFEA06A02280AD073
:104A7000042808D0062806D0082804D040F2DB110C
:104A80001FA003F05FFEE06A801E0D2804D94FF4DA
:104A9000EE711BA003F056FE4746C8F860A0FEF773
:104AA000A5FF064605E000BFFEF7A0FF801B022819
:104AB00051D828688001F7D4D4E907010843A16AD6
:104AC000214A490802EB0141626A41EA8211084326
:104AD00094F82C1040EA0161C9F8001001203866F2
:104AE000FEF784FF044606E064E000BFFEF77EFFA9
:104AF000001B02282FD828688001F7D55AE031E042
:104B00002E2E2F447269766572732F53544D3332B3
:104B1000463478785F48414C5F4472697665722FFD
:104B20005372632F73746D3332663478785F6861C3
:104B30006C5F7263632E63000438024000004742DA
:104B4000800E4742007000400000FFFFFEF74EFF5E
:104B5000001B022802D90320BDE8F88F28688001D5
:104B6000F4D427E00128F7D0D9F80000E26900F476
:104B7000800191421CD1226A00F03F01914217D17D
:104B800047F6C071626A0140B1EB821F10D1A26A80
:104B90004FF0FF3300F4403103EB5202B1EB024F10
:104BA00006D194F82C1000F07060B0EB016F01D0CA
:104BB0000120D1E70020CFE770B504007ED0804906
:104BC000206888420AD07F49884207D07E498842BF
:104BD00004D04FF4A1717DA003F0B4FD60684FF4E0
:104BE000827630B1B04204D040F2431177A003F096
:104BF000A9FDA06850B1B0F5806F07D0B0F5004FA7
:104C000004D04FF4A27171A003F09CFDE068B0F5F0
:104C1000006F05D020B140F245116CA003F092FD69
:104C2000A069B0F5007F08D038B1B0F5802F04D06E
:104C30004FF4A37165A003F085FDE06990B10828E9
:104C400010D010280ED018280CD020280AD02828E0
:104C500008D0302806D0382804D040F247115BA095
:104C600003F070FD206A30B1802804D04FF4A471A5
:104C700056A003F067FD606A002548B3102806D0EF
:104C800040F2491151A003F05DFD606A00B3E06994
:104C900090B1082810D010280ED018280CD0202849
:104CA0000AD0282808D0302806D0382804D040F26E
:104CB0005B1146A003F046FD256100E006E065615A
:104CC000A56294F85100002830D034E0012070BD76
:104CD000206930B1022804D04FF4A6713BA003F044
:104CE00031FD606930B1012804D040F24D1137A088
:104CF00003F028FD6068B04216D1E0690028DFD0DB
:104D00000828DDD01028DBD01828D9D02028D7D00B
:104D10002828D5D03028D3D03828D1D040F251110E
:104D20002AA003F00FFDCBE7E561C9E784F85050F6
:104D3000204600F067F8022084F8510020680168DE
:104D400021F040010160A088218900F4827001F403
:104D500004410843A18901F400610843217C01F06A
:104D600002010843217D01F001010843218B01F478
:104D700000710843217F01F03801084394F82010A6
:104D800001F080010843218D01F40051084321689E
:104D90000860A069042101EA104094F8241001F091
:104DA00010010843216848602068C16921F400614E
:104DB000C1616565012084F85100002070BD0000CC
:104DC0000030014000380040003C00402E2E2F44AF
:104DD0007269766572732F53544D33324634787846
:104DE0005F48414C5F4472697665722F5372632F3E
:104DF00073746D3332663478785F68616C5F73709A
:104E0000692E63002DE9F04F87B0044614216846EF
:104E1000FBF7C6FC8748864BD4F800C00221052268
:104E20004026002507159C4551D1824B1433D3F8F9
:104E300000C04CF4805CC3F800C01B6803F48053CE
:104E40000593036843F001030360006800F001006C
:104E50000590E0208DE82300CDE9031269467648ED
:104E6000FEF714FCDFF8D881744940464FF0C06B60
:104E7000C8F80010C0E901B5C0E90357C8F81450DC
:104E80004FF44039C8F81850C8E90759BA46C8F86D
:104E90002450FEF7FDF908B1FDF7E7FD6748684FBC
:104EA0004830C4F84C806037C8F83840C7E902651C
:104EB000C7E904A5BD61C7E907597D62C7E9000BD1
:104EC000384653E0A764BC6307B0BDE8F08F594B88
:104ED000DFF870811033C4454FD1D3F800C04CF4D3
:104EE000804CC3F800C01B6803F48043059303683B
:104EF00043F002030360006800F0020005904FF4E5
:104F000060408DE82300CDE9031269464E48FEF764
:104F1000BDFBDFF82C814D4908F1C0084046B94679
:104F2000C0E90015C8F80850C0E90357C8F8145084
:104F3000C8F81850C8F81C50C8F82050C8F82450B9
:104F4000FEF7A6F908B1FDF790FD4048404FC4F8C0
:104F50004C801830C8F8384087E86100C7E9035929
:104F60007D61BD61FD613D6238467D62FEF790F96D
:104F70000028A7D0FDF779FDA4E7364A9445A3D1D0
:104F80001A68AA4642F400421A601A6802F4004203
:104F90000592026842F004020260006800F004001A
:104FA00005904FF4E0508DE823000620CDE9031072
:104FB00069462948FEF76AFBDFF89480234908F127
:104FC000600840464839C0E90015C8F80850C0E9F3
:104FD0000357B946C8F814504FF44037C8F8185072
:104FE000C8E90757C8F82450FEF752F908B1FDF791
:104FF0003CFD174D1548C4F84C80C0356030C8F8EA
:1050000038402860C5E901A6C5E903A9C5F814A080
:10501000C5F818A0C5E907A72846C5F824A0FEF7DB
:1050200037F908B1FDF721FDA564AC634CE700003A
:10503000003001403038024000000240106402405D
:10504000C4050020003800400004024058600240BF
:10505000E4060020003C0040000802402DE9F84F23
:1050600004460A9E80681D4692468B464FF0010911
:10507000002720B140F27E4174A003F063FB94F856
:10508000500001280ED0012084F85000FEF7AEFC3D
:10509000804694F85100616801280CD0B1F5827FF8
:1050A00007D102E00220BDE8F88FA16809B9042801
:1050B00001D00227C2E0BBF1000F27D0BAF1000FE8
:1050C00024D01DB394F85100042802D0052084F8A0
:1050D000510000206065C4F838A0E587A587C4F8B2
:1050E00030B0E586A58620646064206801684906C2
:1050F00003D4016841F040010160E068B0F5006F41
:10510000606805D0F0B3012D46D07FE0012795E01F
:1051100008B1012D39D1206B21680088C860206B4F
:10512000801C2063E08E401EE0862EE020688168AF
:1051300089070FD5E18E69B1B9F1010F0AD1216B51
:105140000988C160206B801C2063E08E401EE086D1
:105150004FF0000920688168C9070CD0E18F51B178
:10516000C068A16B0880A06B801CA063E08F401E0C
:10517000E0874FF00109FEF739FCA0EB0800B042D0
:1051800003D300E008E0701C50D1E08E0028CDD1A0
:10519000E08F0028CAD13FE0206B216800780873B7
:1051A000206B401C2063E08E401EE0862EE02068CD
:1051B000816889070FD5E18E69B1B9F1010F0AD174
:1051C000216B09780173206B401C2063E08E401E28
:1051D000E0864FF0000920688168C9070CD0E18F94
:1051E00051B1C068A16B0870A06B401CA063E08F38
:1051F000401EE0874FF00109FEF7F8FBA0EB080026
:10520000B04202D3701C01D010E07EB1E08E0028C5
:10521000CDD1E08F0028CAD142463146204602F067
:1052200043FB28B101272020606507E0032705E044
:10523000A06818B92068C16880680090012084F8CF
:105240005100002084F8500038462CE72E2E2F44C1
:105250007269766572732F53544D333246347878C1
:105260005F48414C5F4472697665722F5372632FB9
:1052700073746D3332663478785F68616C5F737015
:10528000692E63007047704770B50C46054600688C
:105290003E49884207D03E49884204D040F2EE7130
:1052A0003CA003F04FFA2068B0F5006F05D020B1A4
:1052B00040F2EF7137A003F045FA6068B0F5806FF7
:1052C00005D020B14FF4FE6132A003F03BFAA06894
:1052D00068B1B0F5807F0AD0B0F5007F07D0B0F597
:1052E000407F04D040F2F1712AA003F02BFAE0686D
:1052F000FF2804D940F2F27126A003F023FA2069B6
:10530000B0F5805F05D020B140F2F37121A003F029
:1053100019FA606938B1B0F5005F04D040F2F47159
:105320001CA003F00FFAE069B0F5804F05D020B162
:1053300040F2F57117A003F005FA95F83C0001283A
:1053400022D0012085F83C00E068A26820F440707B
:105350001043626820F480601043226820F40060EB
:105360001043226920F480501043626920F40050F9
:105370001043E269002120F4804010432A68506401
:1053800085F83C10002070BD022070BD0000014077
:10539000000401402E2E2F447269766572732F53DC
:1053A000544D3332463478785F48414C5F447269DB
:1053B0007665722F5372632F73746D33326634784F
:1053C000785F68616C5F74696D5F65782E6300005B
:1053D0002DE9F05F044600683A4E3B4FDFF8EC8061
:1053E000DFF8EC90DFF8ECA00D464FF0804BB042B8
:1053F00015D0584513D0B84211D040450FD048457C
:105400000DD04FEAB641884209D03349884206D0D0
:10541000504504D040F2B17130A003F093F92868F0
:1054200090B1102810D020280ED030280CD0402861
:105430000AD0502808D0602806D0702804D040F246
:10544000B27126A003F07EF96868802805D020B1EB
:1054500040F2B37121A003F075F994F83C000128E3
:105460002DD0012284F83C20022084F83D002168E0
:1054700048688B6820F0700C286840EA0C0048608F
:105480002068B0420FD058450DD0B8420BD04045EF
:1054900009D0484507D0504505D01F49884202D061
:1054A0001E49884204D1696823F080031943816052
:1054B00084F83D20002084F83C00BDE8F09F0220E5
:1054C000FBE700000000014000040040000800402D
:1054D000000C004000040140001400402E2E2F4418
:1054E0007269766572732F53544D3332463478782F
:1054F0005F48414C5F4472697665722F5372632F27
:1055000073746D3332663478785F68616C5F746988
:105510006D5F65782E630000004001400018004078
:1055200010B5040058D03F49206888422BD0B0F114
:10553000804F28D03C49884225D03C49884222D01F
:105540003B4988421FD03B4988421CD03A49884297
:1055500019D03A49884216D03949884213D039497E
:10556000884210D0384988420DD0384988420AD044
:105570003749884207D03749884204D040F2131196
:1055800035A003F0DFF8A06860B110280AD0202809
:1055900008D0402806D0602804D04FF48A712EA08D
:1055A00003F0D0F8206950B1B0F5807F07D0B0F596
:1055B000007F04D040F2151127A003F0C3F8A069C2
:1055C00030B1802804D04FF48B7123A003F0BAF8D7
:1055D00094F83D0010B107E0012010BD002084F8D0
:1055E0003C00204600F054F8022084F83D00211DC4
:1055F000206802F06DFA012084F8460084F83E002D
:1056000084F83F0084F8400084F8410084F84200A8
:1056100084F8430084F8440084F8450084F83D0091
:10562000002010BD000001400004004000080040C0
:10563000000C004000100040001400400004014035
:105640000040014000440140004801400018004073
:10565000001C0040002000402E2E2F447269766509
:1056600072732F53544D3332463478785F48414C2F
:105670005F4472697665722F5372632F73746D3352
:1056800032663478785F68616C5F74696D2E630090
:1056900038B5054600681549884225D114490020CF
:1056A0000A6842F001020A600968134C01F0010126
:1056B0000091104921604FF0406161604021C4E9D0
:1056C000021009012161490061618900C4E90610E5
:1056D0004FF44031C4E908102046FDF7D9FD08B168
:1056E000FDF7C3F92C62A56338BD0000000001403E
:1056F0004438024088640240940800202DE9F05F9D
:10570000044600682F4D304E304FDFF8C480DFF87C
:10571000C490DFF8C4A0DFF8C4B0A84226D0B0F12E
:10572000804F23D0B04221D0B8421FD040451DD079
:105730004FEAB541884219D02949884216D04845D8
:1057400014D0504512D0274988420FD026498842AC
:105750000CD058450AD02549884207D024498842B0
:1057600004D040F2CF1123A002F0ECFF94F83D00EA
:10577000012802D00120BDE8F09F022084F83D00FE
:105780002068C16841F00101C1602068A8420ED0C4
:10579000B0F1804F0BD0B04209D0B84207D040459D
:1057A00005D0484503D0504501D0584504D1816803
:1057B00001F00701062903D0016841F001010160F1
:1057C0000020D8E70000014000040040000800402D
:1057D000000C00400004014000400140001800405F
:1057E000001400400044014000480140001C0040FB
:1057F000002000402E2E2F447269766572732F535D
:10580000544D3332463478785F48414C5F44726976
:105810007665722F5372632F73746D3332663478EA
:10582000785F68616C5F74696D2E63002DE9F84FD5
:1058300005460020009095F83C000C46012841D018
:10584000012085F83C00022085F83D0020684FF4D7
:10585000805B584516D0B0F5005F13D090B110288A
:1058600010D020280ED030280CD040280AD0502844
:1058700008D0602806D0702804D041F2BB41D4A0E3
:1058800002F060FF2868816821F0770121F47F41F0
:1058900081602068DC49DD4ADD4BDE4EDE4FDFF8FB
:1058A0007CC3DFF87C834FF080494FF4004A5028D6
:1058B0007ED00FDC202804D007DC0028FBD0102885
:1058C00077D161E10220BDE8F88F3028F9D0402877
:1058D000F6D126E160286DD0702874D0584544D0A8
:1058E0004FF400584045EBD1286888420ED0484517
:1058F0000CD090420AD0984208D0B04206D0B842AC
:1059000004D041F2E641B2A002F01CFFA06858B1F9
:10591000584509D0404507D0B0F5405F04D041F26A
:10592000E941ABA002F00EFF6068504509D040B1DC
:10593000022806D00A2804D041F2EA41A4A002F0CD
:1059400001FFE0680F2804D941F2EB41A0A002F06A
:10595000F9FED4E90121E368286802F01DF92868FE
:10596000816841F48041816029E128688842FBD048
:105970004845F9D09042F7D09842F5D0B042F3D0E4
:10598000A8498842F0D0A8498842EDD0B842EBD06F
:105990006045E9D0A5498842E6D0A5498842E3D0D0
:1059A0004045E1D0A3498842DED0A349884203E0C4
:1059B0004FE002E180E006E0D6D041F2C74184A08A
:1059C00002F0C0FEFBE02868884212D0484510D0A3
:1059D00090420ED098420CD0B0420AD0B84208D0C3
:1059E000604506D0404504D041F2CE4178A002F097
:1059F000A9FEA06860B158450AD0B0F5005F07D095
:105A0000B0F5405F04D041F2D14171A002F09AFE9E
:105A10006068504509D040B1022806D00A2804D059
:105A200041F2D2416AA002F08DFEE0680F2804D94D
:105A300041F2D34166A002F085FED4E90121E3687A
:105A4000286802F0A9F82968886840F07700886023
:105A5000B5E02868884212D0484510D090420ED058
:105A600098420CD0B0420AD0B84208D0604506D067
:105A7000404504D041F2FA4155A002F063FE60684F
:105A8000504509D040B1022806D00A2804D041F27E
:105A9000FD414FA002F056FEE0680F2804D941F204
:105AA000FE414BA002F04EFEE2686168286802F0F9
:105AB00035FA5021286831E02868884212D04845DC
:105AC00010D090420ED098420CD0B0420AD0B842CA
:105AD00008D0604506D0404504D041F20A513CA0B0
